{
  "_format": "hh-sol-artifact-1",
  "contractName": "MyEpicNFT",
  "sourceName": "contracts/MyEpicNFT.sol",
  "abi": [
    {
      "inputs": [],
      "stateMutability": "nonpayable",
      "type": "constructor"
    },
    {
      "anonymous": false,
      "inputs": [
        {
          "indexed": true,
          "internalType": "address",
          "name": "owner",
          "type": "address"
        },
        {
          "indexed": true,
          "internalType": "address",
          "name": "approved",
          "type": "address"
        },
        {
          "indexed": true,
          "internalType": "uint256",
          "name": "tokenId",
          "type": "uint256"
        }
      ],
      "name": "Approval",
      "type": "event"
    },
    {
      "anonymous": false,
      "inputs": [
        {
          "indexed": true,
          "internalType": "address",
          "name": "owner",
          "type": "address"
        },
        {
          "indexed": true,
          "internalType": "address",
          "name": "operator",
          "type": "address"
        },
        {
          "indexed": false,
          "internalType": "bool",
          "name": "approved",
          "type": "bool"
        }
      ],
      "name": "ApprovalForAll",
      "type": "event"
    },
    {
      "anonymous": false,
      "inputs": [
        {
          "indexed": false,
          "internalType": "address",
          "name": "sender",
          "type": "address"
        },
        {
          "indexed": false,
          "internalType": "uint256",
          "name": "tokenId",
          "type": "uint256"
        }
      ],
      "name": "NewEpicNFTMinted",
      "type": "event"
    },
    {
      "anonymous": false,
      "inputs": [
        {
          "indexed": true,
          "internalType": "address",
          "name": "from",
          "type": "address"
        },
        {
          "indexed": true,
          "internalType": "address",
          "name": "to",
          "type": "address"
        },
        {
          "indexed": true,
          "internalType": "uint256",
          "name": "tokenId",
          "type": "uint256"
        }
      ],
      "name": "Transfer",
      "type": "event"
    },
    {
      "inputs": [
        {
          "internalType": "address",
          "name": "to",
          "type": "address"
        },
        {
          "internalType": "uint256",
          "name": "tokenId",
          "type": "uint256"
        }
      ],
      "name": "approve",
      "outputs": [],
      "stateMutability": "nonpayable",
      "type": "function"
    },
    {
      "inputs": [
        {
          "internalType": "address",
          "name": "owner",
          "type": "address"
        }
      ],
      "name": "balanceOf",
      "outputs": [
        {
          "internalType": "uint256",
          "name": "",
          "type": "uint256"
        }
      ],
      "stateMutability": "view",
      "type": "function"
    },
    {
      "inputs": [
        {
          "internalType": "uint256",
          "name": "tokenId",
          "type": "uint256"
        }
      ],
      "name": "getApproved",
      "outputs": [
        {
          "internalType": "address",
          "name": "",
          "type": "address"
        }
      ],
      "stateMutability": "view",
      "type": "function"
    },
    {
      "inputs": [
        {
          "internalType": "address",
          "name": "owner",
          "type": "address"
        },
        {
          "internalType": "address",
          "name": "operator",
          "type": "address"
        }
      ],
      "name": "isApprovedForAll",
      "outputs": [
        {
          "internalType": "bool",
          "name": "",
          "type": "bool"
        }
      ],
      "stateMutability": "view",
      "type": "function"
    },
    {
      "inputs": [],
      "name": "makeAnEpicNFT",
      "outputs": [],
      "stateMutability": "nonpayable",
      "type": "function"
    },
    {
      "inputs": [],
      "name": "name",
      "outputs": [
        {
          "internalType": "string",
          "name": "",
          "type": "string"
        }
      ],
      "stateMutability": "view",
      "type": "function"
    },
    {
      "inputs": [
        {
          "internalType": "uint256",
          "name": "tokenId",
          "type": "uint256"
        }
      ],
      "name": "ownerOf",
      "outputs": [
        {
          "internalType": "address",
          "name": "",
          "type": "address"
        }
      ],
      "stateMutability": "view",
      "type": "function"
    },
    {
      "inputs": [
        {
          "internalType": "uint256",
          "name": "tokenId",
          "type": "uint256"
        }
      ],
      "name": "pickRandomFifthEmoji",
      "outputs": [
        {
          "internalType": "string",
          "name": "",
          "type": "string"
        }
      ],
      "stateMutability": "view",
      "type": "function"
    },
    {
      "inputs": [
        {
          "internalType": "uint256",
          "name": "tokenId",
          "type": "uint256"
        }
      ],
      "name": "pickRandomFirstEmoji",
      "outputs": [
        {
          "internalType": "string",
          "name": "",
          "type": "string"
        }
      ],
      "stateMutability": "view",
      "type": "function"
    },
    {
      "inputs": [
        {
          "internalType": "uint256",
          "name": "tokenId",
          "type": "uint256"
        }
      ],
      "name": "pickRandomFourthEmoji",
      "outputs": [
        {
          "internalType": "string",
          "name": "",
          "type": "string"
        }
      ],
      "stateMutability": "view",
      "type": "function"
    },
    {
      "inputs": [
        {
          "internalType": "uint256",
          "name": "tokenId",
          "type": "uint256"
        }
      ],
      "name": "pickRandomSecondEmoji",
      "outputs": [
        {
          "internalType": "string",
          "name": "",
          "type": "string"
        }
      ],
      "stateMutability": "view",
      "type": "function"
    },
    {
      "inputs": [
        {
          "internalType": "uint256",
          "name": "tokenId",
          "type": "uint256"
        }
      ],
      "name": "pickRandomSixthEmoji",
      "outputs": [
        {
          "internalType": "string",
          "name": "",
          "type": "string"
        }
      ],
      "stateMutability": "view",
      "type": "function"
    },
    {
      "inputs": [
        {
          "internalType": "uint256",
          "name": "tokenId",
          "type": "uint256"
        }
      ],
      "name": "pickRandomThirdEmoji",
      "outputs": [
        {
          "internalType": "string",
          "name": "",
          "type": "string"
        }
      ],
      "stateMutability": "view",
      "type": "function"
    },
    {
      "inputs": [
        {
          "internalType": "address",
          "name": "from",
          "type": "address"
        },
        {
          "internalType": "address",
          "name": "to",
          "type": "address"
        },
        {
          "internalType": "uint256",
          "name": "tokenId",
          "type": "uint256"
        }
      ],
      "name": "safeTransferFrom",
      "outputs": [],
      "stateMutability": "nonpayable",
      "type": "function"
    },
    {
      "inputs": [
        {
          "internalType": "address",
          "name": "from",
          "type": "address"
        },
        {
          "internalType": "address",
          "name": "to",
          "type": "address"
        },
        {
          "internalType": "uint256",
          "name": "tokenId",
          "type": "uint256"
        },
        {
          "internalType": "bytes",
          "name": "_data",
          "type": "bytes"
        }
      ],
      "name": "safeTransferFrom",
      "outputs": [],
      "stateMutability": "nonpayable",
      "type": "function"
    },
    {
      "inputs": [
        {
          "internalType": "address",
          "name": "operator",
          "type": "address"
        },
        {
          "internalType": "bool",
          "name": "approved",
          "type": "bool"
        }
      ],
      "name": "setApprovalForAll",
      "outputs": [],
      "stateMutability": "nonpayable",
      "type": "function"
    },
    {
      "inputs": [
        {
          "internalType": "bytes4",
          "name": "interfaceId",
          "type": "bytes4"
        }
      ],
      "name": "supportsInterface",
      "outputs": [
        {
          "internalType": "bool",
          "name": "",
          "type": "bool"
        }
      ],
      "stateMutability": "view",
      "type": "function"
    },
    {
      "inputs": [],
      "name": "symbol",
      "outputs": [
        {
          "internalType": "string",
          "name": "",
          "type": "string"
        }
      ],
      "stateMutability": "view",
      "type": "function"
    },
    {
      "inputs": [
        {
          "internalType": "uint256",
          "name": "tokenId",
          "type": "uint256"
        }
      ],
      "name": "tokenURI",
      "outputs": [
        {
          "internalType": "string",
          "name": "",
          "type": "string"
        }
      ],
      "stateMutability": "view",
      "type": "function"
    },
    {
      "inputs": [
        {
          "internalType": "address",
          "name": "from",
          "type": "address"
        },
        {
          "internalType": "address",
          "name": "to",
          "type": "address"
        },
        {
          "internalType": "uint256",
          "name": "tokenId",
          "type": "uint256"
        }
      ],
      "name": "transferFrom",
      "outputs": [],
      "stateMutability": "nonpayable",
      "type": "function"
    }
  ],
  "bytecode": "0x6080604052604051806101600160405280610131815260200162010229610131913960089080519060200190620000389291906200bf74565b5060405180610b2001604052806040518060400160405280600481526020017ff09f98840000000000000000000000000000000000000000000000000000000081525081526020016040518060400160405280600481526020017ff09f98830000000000000000000000000000000000000000000000000000000081525081526020016040518060400160405280600481526020017ff09f98800000000000000000000000000000000000000000000000000000000081525081526020016040518060400160405280600481526020017ff09f988a0000000000000000000000000000000000000000000000000000000081525081526020016040518060400160405280600381526020017fe298ba000000000000000000000000000000000000000000000000000000000081525081526020016040518060400160405280600481526020017ff09f98890000000000000000000000000000000000000000000000000000000081525081526020016040518060400160405280600481526020017ff09f988d0000000000000000000000000000000000000000000000000000000081525081526020016040518060400160405280600481526020017ff09f98980000000000000000000000000000000000000000000000000000000081525081526020016040518060400160405280600481526020017ff09f989a0000000000000000000000000000000000000000000000000000000081525081526020016040518060400160405280600481526020017ff09f98970000000000000000000000000000000000000000000000000000000081525081526020016040518060400160405280600481526020017ff09f98990000000000000000000000000000000000000000000000000000000081525081526020016040518060400160405280600481526020017ff09f989c0000000000000000000000000000000000000000000000000000000081525081526020016040518060400160405280600481526020017ff09f989d0000000000000000000000000000000000000000000000000000000081525081526020016040518060400160405280600481526020017ff09f989b0000000000000000000000000000000000000000000000000000000081525081526020016040518060400160405280600481526020017ff09f98b30000000000000000000000000000000000000000000000000000000081525081526020016040518060400160405280600481526020017ff09f98810000000000000000000000000000000000000000000000000000000081525081526020016040518060400160405280600481526020017ff09f98940000000000000000000000000000000000000000000000000000000081525081526020016040518060400160405280600481526020017ff09f988c0000000000000000000000000000000000000000000000000000000081525081526020016040518060400160405280600481526020017ff09f98920000000000000000000000000000000000000000000000000000000081525081526020016040518060400160405280600481526020017ff09f989e0000000000000000000000000000000000000000000000000000000081525081526020016040518060400160405280600481526020017ff09f98a30000000000000000000000000000000000000000000000000000000081525081526020016040518060400160405280600481526020017ff09f98a20000000000000000000000000000000000000000000000000000000081525081526020016040518060400160405280600481526020017ff09f98820000000000000000000000000000000000000000000000000000000081525081526020016040518060400160405280600481526020017ff09f98ad0000000000000000000000000000000000000000000000000000000081525081526020016040518060400160405280600481526020017ff09f98aa0000000000000000000000000000000000000000000000000000000081525081526020016040518060400160405280600481526020017ff09f98a50000000000000000000000000000000000000000000000000000000081525081526020016040518060400160405280600481526020017ff09f98b00000000000000000000000000000000000000000000000000000000081525081526020016040518060400160405280600481526020017ff09f98850000000000000000000000000000000000000000000000000000000081525081526020016040518060400160405280600481526020017ff09f98930000000000000000000000000000000000000000000000000000000081525081526020016040518060400160405280600481526020017ff09f98a90000000000000000000000000000000000000000000000000000000081525081526020016040518060400160405280600481526020017ff09f98ab0000000000000000000000000000000000000000000000000000000081525081526020016040518060400160405280600481526020017ff09f98a80000000000000000000000000000000000000000000000000000000081525081526020016040518060400160405280600481526020017ff09f98b10000000000000000000000000000000000000000000000000000000081525081526020016040518060400160405280600481526020017ff09f98a00000000000000000000000000000000000000000000000000000000081525081526020016040518060400160405280600481526020017ff09f98a10000000000000000000000000000000000000000000000000000000081525081526020016040518060400160405280600481526020017ff09f98a40000000000000000000000000000000000000000000000000000000081525081526020016040518060400160405280600481526020017ff09f98960000000000000000000000000000000000000000000000000000000081525081526020016040518060400160405280600481526020017ff09f98860000000000000000000000000000000000000000000000000000000081525081526020016040518060400160405280600481526020017ff09f988b0000000000000000000000000000000000000000000000000000000081525081526020016040518060400160405280600481526020017ff09f98b70000000000000000000000000000000000000000000000000000000081525081526020016040518060400160405280600481526020017ff09f988e0000000000000000000000000000000000000000000000000000000081525081526020016040518060400160405280600481526020017ff09f98b40000000000000000000000000000000000000000000000000000000081525081526020016040518060400160405280600481526020017ff09f98b50000000000000000000000000000000000000000000000000000000081525081526020016040518060400160405280600481526020017ff09f98b20000000000000000000000000000000000000000000000000000000081525081526020016040518060400160405280600481526020017ff09f989f0000000000000000000000000000000000000000000000000000000081525081526020016040518060400160405280600481526020017ff09f98a60000000000000000000000000000000000000000000000000000000081525081526020016040518060400160405280600481526020017ff09f98a70000000000000000000000000000000000000000000000000000000081525081526020016040518060400160405280600481526020017ff09f98880000000000000000000000000000000000000000000000000000000081525081526020016040518060400160405280600481526020017ff09f91bf0000000000000000000000000000000000000000000000000000000081525081526020016040518060400160405280600481526020017ff09f98ae0000000000000000000000000000000000000000000000000000000081525081526020016040518060400160405280600481526020017ff09f98ac0000000000000000000000000000000000000000000000000000000081525081526020016040518060400160405280600481526020017ff09f98900000000000000000000000000000000000000000000000000000000081525081526020016040518060400160405280600481526020017ff09f98950000000000000000000000000000000000000000000000000000000081525081526020016040518060400160405280600481526020017ff09f98af0000000000000000000000000000000000000000000000000000000081525081526020016040518060400160405280600481526020017ff09f98b60000000000000000000000000000000000000000000000000000000081525081526020016040518060400160405280600481526020017ff09f98870000000000000000000000000000000000000000000000000000000081525081526020016040518060400160405280600481526020017ff09f988f0000000000000000000000000000000000000000000000000000000081525081526020016040518060400160405280600481526020017ff09f98910000000000000000000000000000000000000000000000000000000081525081526020016040518060400160405280600481526020017ff09f91b20000000000000000000000000000000000000000000000000000000081525081526020016040518060400160405280600481526020017ff09f91b30000000000000000000000000000000000000000000000000000000081525081526020016040518060400160405280600481526020017ff09f91ae0000000000000000000000000000000000000000000000000000000081525081526020016040518060400160405280600481526020017ff09f91b70000000000000000000000000000000000000000000000000000000081525081526020016040518060400160405280600481526020017ff09f92820000000000000000000000000000000000000000000000000000000081525081526020016040518060400160405280600481526020017ff09f91b60000000000000000000000000000000000000000000000000000000081525081526020016040518060400160405280600481526020017ff09f91a60000000000000000000000000000000000000000000000000000000081525081526020016040518060400160405280600481526020017ff09f91a70000000000000000000000000000000000000000000000000000000081525081526020016040518060400160405280600481526020017ff09f91a80000000000000000000000000000000000000000000000000000000081525081526020016040518060400160405280600481526020017ff09f91a90000000000000000000000000000000000000000000000000000000081525081526020016040518060400160405280600481526020017ff09f91b40000000000000000000000000000000000000000000000000000000081525081526020016040518060400160405280600481526020017ff09f91b50000000000000000000000000000000000000000000000000000000081525081526020016040518060400160405280600481526020017ff09f91b10000000000000000000000000000000000000000000000000000000081525081526020016040518060400160405280600481526020017ff09f91bc0000000000000000000000000000000000000000000000000000000081525081526020016040518060400160405280600481526020017ff09f91b80000000000000000000000000000000000000000000000000000000081525081526020016040518060400160405280600481526020017ff09f98ba0000000000000000000000000000000000000000000000000000000081525081526020016040518060400160405280600481526020017ff09f98b80000000000000000000000000000000000000000000000000000000081525081526020016040518060400160405280600481526020017ff09f98bb0000000000000000000000000000000000000000000000000000000081525081526020016040518060400160405280600481526020017ff09f98bd0000000000000000000000000000000000000000000000000000000081525081526020016040518060400160405280600481526020017ff09f98bc0000000000000000000000000000000000000000000000000000000081525081526020016040518060400160405280600481526020017ff09f99800000000000000000000000000000000000000000000000000000000081525081526020016040518060400160405280600481526020017ff09f98bf0000000000000000000000000000000000000000000000000000000081525081526020016040518060400160405280600481526020017ff09f98b90000000000000000000000000000000000000000000000000000000081525081526020016040518060400160405280600481526020017ff09f98be0000000000000000000000000000000000000000000000000000000081525081526020016040518060400160405280600481526020017ff09f91b90000000000000000000000000000000000000000000000000000000081525081526020016040518060400160405280600481526020017ff09f91ba0000000000000000000000000000000000000000000000000000000081525081526020016040518060400160405280600481526020017ff09f99880000000000000000000000000000000000000000000000000000000081525081526020016040518060400160405280600481526020017ff09f99890000000000000000000000000000000000000000000000000000000081525081526020016040518060400160405280600481526020017ff09f998a0000000000000000000000000000000000000000000000000000000081525081526020016040518060400160405280600481526020017ff09f92800000000000000000000000000000000000000000000000000000000081525081526020016040518060400160405280600481526020017ff09f91bd000000000000000000000000000000000000000000000000000000008152508152506009906059620014d89291906200c005565b5060405180610c8001604052806040518060400160405280600481526020017ff09f92a90000000000000000000000000000000000000000000000000000000081525081526020016040518060400160405280600481526020017ff09f94a50000000000000000000000000000000000000000000000000000000081525081526020016040518060400160405280600381526020017fe29ca8000000000000000000000000000000000000000000000000000000000081525081526020016040518060400160405280600481526020017ff09f8c9f0000000000000000000000000000000000000000000000000000000081525081526020016040518060400160405280600481526020017ff09f92ab0000000000000000000000000000000000000000000000000000000081525081526020016040518060400160405280600481526020017ff09f92a50000000000000000000000000000000000000000000000000000000081525081526020016040518060400160405280600481526020017ff09f92a20000000000000000000000000000000000000000000000000000000081525081526020016040518060400160405280600481526020017ff09f92a60000000000000000000000000000000000000000000000000000000081525081526020016040518060400160405280600481526020017ff09f92a70000000000000000000000000000000000000000000000000000000081525081526020016040518060400160405280600481526020017ff09f92a40000000000000000000000000000000000000000000000000000000081525081526020016040518060400160405280600481526020017ff09f92a80000000000000000000000000000000000000000000000000000000081525081526020016040518060400160405280600481526020017ff09f91820000000000000000000000000000000000000000000000000000000081525081526020016040518060400160405280600481526020017ff09f91800000000000000000000000000000000000000000000000000000000081525081526020016040518060400160405280600481526020017ff09f91830000000000000000000000000000000000000000000000000000000081525081526020016040518060400160405280600481526020017ff09f91850000000000000000000000000000000000000000000000000000000081525081526020016040518060400160405280600481526020017ff09f91840000000000000000000000000000000000000000000000000000000081525081526020016040518060400160405280600481526020017ff09f918d0000000000000000000000000000000000000000000000000000000081525081526020016040518060400160405280600481526020017ff09f918e0000000000000000000000000000000000000000000000000000000081525081526020016040518060400160405280600481526020017ff09f918c0000000000000000000000000000000000000000000000000000000081525081526020016040518060400160405280600481526020017ff09f918a0000000000000000000000000000000000000000000000000000000081525081526020016040518060400160405280600381526020017fe29c8a000000000000000000000000000000000000000000000000000000000081525081526020016040518060400160405280600381526020017fe29c8c000000000000000000000000000000000000000000000000000000000081525081526020016040518060400160405280600481526020017ff09f918b0000000000000000000000000000000000000000000000000000000081525081526020016040518060400160405280600381526020017fe29c8b000000000000000000000000000000000000000000000000000000000081525081526020016040518060400160405280600481526020017ff09f91900000000000000000000000000000000000000000000000000000000081525081526020016040518060400160405280600481526020017ff09f91860000000000000000000000000000000000000000000000000000000081525081526020016040518060400160405280600481526020017ff09f91870000000000000000000000000000000000000000000000000000000081525081526020016040518060400160405280600481526020017ff09f91890000000000000000000000000000000000000000000000000000000081525081526020016040518060400160405280600481526020017ff09f91880000000000000000000000000000000000000000000000000000000081525081526020016040518060400160405280600481526020017ff09f998c0000000000000000000000000000000000000000000000000000000081525081526020016040518060400160405280600481526020017ff09f998f0000000000000000000000000000000000000000000000000000000081525081526020016040518060400160405280600381526020017fe2989d000000000000000000000000000000000000000000000000000000000081525081526020016040518060400160405280600481526020017ff09f918f0000000000000000000000000000000000000000000000000000000081525081526020016040518060400160405280600481526020017ff09f92aa0000000000000000000000000000000000000000000000000000000081525081526020016040518060400160405280600481526020017ff09f9ab60000000000000000000000000000000000000000000000000000000081525081526020016040518060400160405280600481526020017ff09f8f830000000000000000000000000000000000000000000000000000000081525081526020016040518060400160405280600481526020017ff09f92830000000000000000000000000000000000000000000000000000000081525081526020016040518060400160405280600481526020017ff09f91ab0000000000000000000000000000000000000000000000000000000081525081526020016040518060400160405280600481526020017ff09f91aa0000000000000000000000000000000000000000000000000000000081525081526020016040518060400160405280600481526020017ff09f91ac0000000000000000000000000000000000000000000000000000000081525081526020016040518060400160405280600481526020017ff09f91ad0000000000000000000000000000000000000000000000000000000081525081526020016040518060400160405280600481526020017ff09f928f0000000000000000000000000000000000000000000000000000000081525081526020016040518060400160405280600481526020017ff09f92910000000000000000000000000000000000000000000000000000000081525081526020016040518060400160405280600481526020017ff09f91af0000000000000000000000000000000000000000000000000000000081525081526020016040518060400160405280600481526020017ff09f99860000000000000000000000000000000000000000000000000000000081525081526020016040518060400160405280600481526020017ff09f99850000000000000000000000000000000000000000000000000000000081525081526020016040518060400160405280600481526020017ff09f92810000000000000000000000000000000000000000000000000000000081525081526020016040518060400160405280600481526020017ff09f998b0000000000000000000000000000000000000000000000000000000081525081526020016040518060400160405280600481526020017ff09f92860000000000000000000000000000000000000000000000000000000081525081526020016040518060400160405280600481526020017ff09f92870000000000000000000000000000000000000000000000000000000081525081526020016040518060400160405280600481526020017ff09f92850000000000000000000000000000000000000000000000000000000081525081526020016040518060400160405280600481526020017ff09f91b00000000000000000000000000000000000000000000000000000000081525081526020016040518060400160405280600481526020017ff09f998e0000000000000000000000000000000000000000000000000000000081525081526020016040518060400160405280600481526020017ff09f998d0000000000000000000000000000000000000000000000000000000081525081526020016040518060400160405280600481526020017ff09f99870000000000000000000000000000000000000000000000000000000081525081526020016040518060400160405280600481526020017ff09f8ea90000000000000000000000000000000000000000000000000000000081525081526020016040518060400160405280600481526020017ff09f91910000000000000000000000000000000000000000000000000000000081525081526020016040518060400160405280600481526020017ff09f91920000000000000000000000000000000000000000000000000000000081525081526020016040518060400160405280600481526020017ff09f919f0000000000000000000000000000000000000000000000000000000081525081526020016040518060400160405280600481526020017ff09f919e0000000000000000000000000000000000000000000000000000000081525081526020016040518060400160405280600481526020017ff09f91a10000000000000000000000000000000000000000000000000000000081525081526020016040518060400160405280600481526020017ff09f91a00000000000000000000000000000000000000000000000000000000081525081526020016040518060400160405280600481526020017ff09f91a20000000000000000000000000000000000000000000000000000000081525081526020016040518060400160405280600481526020017ff09f91950000000000000000000000000000000000000000000000000000000081525081526020016040518060400160405280600481526020017ff09f91940000000000000000000000000000000000000000000000000000000081525081526020016040518060400160405280600481526020017ff09f919a0000000000000000000000000000000000000000000000000000000081525081526020016040518060400160405280600481526020017ff09f91970000000000000000000000000000000000000000000000000000000081525081526020016040518060400160405280600481526020017ff09f8ebd0000000000000000000000000000000000000000000000000000000081525081526020016040518060400160405280600481526020017ff09f91960000000000000000000000000000000000000000000000000000000081525081526020016040518060400160405280600481526020017ff09f91980000000000000000000000000000000000000000000000000000000081525081526020016040518060400160405280600481526020017ff09f91990000000000000000000000000000000000000000000000000000000081525081526020016040518060400160405280600481526020017ff09f92bc0000000000000000000000000000000000000000000000000000000081525081526020016040518060400160405280600481526020017ff09f919c0000000000000000000000000000000000000000000000000000000081525081526020016040518060400160405280600481526020017ff09f919d0000000000000000000000000000000000000000000000000000000081525081526020016040518060400160405280600481526020017ff09f919b0000000000000000000000000000000000000000000000000000000081525081526020016040518060400160405280600481526020017ff09f91930000000000000000000000000000000000000000000000000000000081525081526020016040518060400160405280600481526020017ff09f8e800000000000000000000000000000000000000000000000000000000081525081526020016040518060400160405280600481526020017ff09f8c820000000000000000000000000000000000000000000000000000000081525081526020016040518060400160405280600481526020017ff09f92840000000000000000000000000000000000000000000000000000000081525081526020016040518060400160405280600481526020017ff09f929b0000000000000000000000000000000000000000000000000000000081525081526020016040518060400160405280600481526020017ff09f92990000000000000000000000000000000000000000000000000000000081525081526020016040518060400160405280600481526020017ff09f929c0000000000000000000000000000000000000000000000000000000081525081526020016040518060400160405280600481526020017ff09f929a0000000000000000000000000000000000000000000000000000000081525081526020016040518060400160405280600381526020017fe29da4000000000000000000000000000000000000000000000000000000000081525081526020016040518060400160405280600481526020017ff09f92940000000000000000000000000000000000000000000000000000000081525081526020016040518060400160405280600481526020017ff09f92970000000000000000000000000000000000000000000000000000000081525081526020016040518060400160405280600481526020017ff09f92930000000000000000000000000000000000000000000000000000000081525081526020016040518060400160405280600481526020017ff09f92950000000000000000000000000000000000000000000000000000000081525081526020016040518060400160405280600481526020017ff09f92960000000000000000000000000000000000000000000000000000000081525081526020016040518060400160405280600481526020017ff09f929e0000000000000000000000000000000000000000000000000000000081525081526020016040518060400160405280600481526020017ff09f92980000000000000000000000000000000000000000000000000000000081525081526020016040518060400160405280600481526020017ff09f928c0000000000000000000000000000000000000000000000000000000081525081526020016040518060400160405280600481526020017ff09f928b0000000000000000000000000000000000000000000000000000000081525081526020016040518060400160405280600481526020017ff09f928d0000000000000000000000000000000000000000000000000000000081525081526020016040518060400160405280600481526020017ff09f928e0000000000000000000000000000000000000000000000000000000081525081526020016040518060400160405280600481526020017ff09f91a40000000000000000000000000000000000000000000000000000000081525081526020016040518060400160405280600481526020017ff09f91a50000000000000000000000000000000000000000000000000000000081525081526020016040518060400160405280600481526020017ff09f92ac0000000000000000000000000000000000000000000000000000000081525081526020016040518060400160405280600481526020017ff09f91a30000000000000000000000000000000000000000000000000000000081525081526020016040518060400160405280600481526020017ff09f92ad00000000000000000000000000000000000000000000000000000000815250815250600a90606462002c019291906200c06c565b5060405180610c4001604052806040518060400160405280600481526020017ff09f90b60000000000000000000000000000000000000000000000000000000081525081526020016040518060400160405280600481526020017ff09f90ba0000000000000000000000000000000000000000000000000000000081525081526020016040518060400160405280600481526020017ff09f90b10000000000000000000000000000000000000000000000000000000081525081526020016040518060400160405280600481526020017ff09f90ad0000000000000000000000000000000000000000000000000000000081525081526020016040518060400160405280600481526020017ff09f90b90000000000000000000000000000000000000000000000000000000081525081526020016040518060400160405280600481526020017ff09f90b00000000000000000000000000000000000000000000000000000000081525081526020016040518060400160405280600481526020017ff09f90b80000000000000000000000000000000000000000000000000000000081525081526020016040518060400160405280600481526020017ff09f90af0000000000000000000000000000000000000000000000000000000081525081526020016040518060400160405280600481526020017ff09f90a80000000000000000000000000000000000000000000000000000000081525081526020016040518060400160405280600481526020017ff09f90bb0000000000000000000000000000000000000000000000000000000081525081526020016040518060400160405280600481526020017ff09f90b70000000000000000000000000000000000000000000000000000000081525081526020016040518060400160405280600481526020017ff09f90bd0000000000000000000000000000000000000000000000000000000081525081526020016040518060400160405280600481526020017ff09f90ae0000000000000000000000000000000000000000000000000000000081525081526020016040518060400160405280600481526020017ff09f90970000000000000000000000000000000000000000000000000000000081525081526020016040518060400160405280600481526020017ff09f90b50000000000000000000000000000000000000000000000000000000081525081526020016040518060400160405280600481526020017ff09f90920000000000000000000000000000000000000000000000000000000081525081526020016040518060400160405280600481526020017ff09f90b40000000000000000000000000000000000000000000000000000000081525081526020016040518060400160405280600481526020017ff09f90910000000000000000000000000000000000000000000000000000000081525081526020016040518060400160405280600481526020017ff09f90980000000000000000000000000000000000000000000000000000000081525081526020016040518060400160405280600481526020017ff09f90bc0000000000000000000000000000000000000000000000000000000081525081526020016040518060400160405280600481526020017ff09f90a70000000000000000000000000000000000000000000000000000000081525081526020016040518060400160405280600481526020017ff09f90a60000000000000000000000000000000000000000000000000000000081525081526020016040518060400160405280600481526020017ff09f90a40000000000000000000000000000000000000000000000000000000081525081526020016040518060400160405280600481526020017ff09f90a50000000000000000000000000000000000000000000000000000000081525081526020016040518060400160405280600481526020017ff09f90a30000000000000000000000000000000000000000000000000000000081525081526020016040518060400160405280600481526020017ff09f90940000000000000000000000000000000000000000000000000000000081525081526020016040518060400160405280600481526020017ff09f908d0000000000000000000000000000000000000000000000000000000081525081526020016040518060400160405280600481526020017ff09f90a20000000000000000000000000000000000000000000000000000000081525081526020016040518060400160405280600481526020017ff09f909b0000000000000000000000000000000000000000000000000000000081525081526020016040518060400160405280600481526020017ff09f909d0000000000000000000000000000000000000000000000000000000081525081526020016040518060400160405280600481526020017ff09f909c0000000000000000000000000000000000000000000000000000000081525081526020016040518060400160405280600481526020017ff09f909e0000000000000000000000000000000000000000000000000000000081525081526020016040518060400160405280600481526020017ff09f908c0000000000000000000000000000000000000000000000000000000081525081526020016040518060400160405280600481526020017ff09f90990000000000000000000000000000000000000000000000000000000081525081526020016040518060400160405280600481526020017ff09f909a0000000000000000000000000000000000000000000000000000000081525081526020016040518060400160405280600481526020017ff09f90a00000000000000000000000000000000000000000000000000000000081525081526020016040518060400160405280600481526020017ff09f909f0000000000000000000000000000000000000000000000000000000081525081526020016040518060400160405280600481526020017ff09f90ac0000000000000000000000000000000000000000000000000000000081525081526020016040518060400160405280600481526020017ff09f90b30000000000000000000000000000000000000000000000000000000081525081526020016040518060400160405280600481526020017ff09f908b0000000000000000000000000000000000000000000000000000000081525081526020016040518060400160405280600481526020017ff09f90840000000000000000000000000000000000000000000000000000000081525081526020016040518060400160405280600481526020017ff09f908f0000000000000000000000000000000000000000000000000000000081525081526020016040518060400160405280600481526020017ff09f90800000000000000000000000000000000000000000000000000000000081525081526020016040518060400160405280600481526020017ff09f90830000000000000000000000000000000000000000000000000000000081525081526020016040518060400160405280600481526020017ff09f90850000000000000000000000000000000000000000000000000000000081525081526020016040518060400160405280600481526020017ff09f90870000000000000000000000000000000000000000000000000000000081525081526020016040518060400160405280600481526020017ff09f90890000000000000000000000000000000000000000000000000000000081525081526020016040518060400160405280600481526020017ff09f908e0000000000000000000000000000000000000000000000000000000081525081526020016040518060400160405280600481526020017ff09f90900000000000000000000000000000000000000000000000000000000081525081526020016040518060400160405280600481526020017ff09f90930000000000000000000000000000000000000000000000000000000081525081526020016040518060400160405280600481526020017ff09f90950000000000000000000000000000000000000000000000000000000081525081526020016040518060400160405280600481526020017ff09f90960000000000000000000000000000000000000000000000000000000081525081526020016040518060400160405280600481526020017ff09f90810000000000000000000000000000000000000000000000000000000081525081526020016040518060400160405280600481526020017ff09f90820000000000000000000000000000000000000000000000000000000081525081526020016040518060400160405280600481526020017ff09f90b20000000000000000000000000000000000000000000000000000000081525081526020016040518060400160405280600481526020017ff09f90a10000000000000000000000000000000000000000000000000000000081525081526020016040518060400160405280600481526020017ff09f908a0000000000000000000000000000000000000000000000000000000081525081526020016040518060400160405280600481526020017ff09f90ab0000000000000000000000000000000000000000000000000000000081525081526020016040518060400160405280600481526020017ff09f90aa0000000000000000000000000000000000000000000000000000000081525081526020016040518060400160405280600481526020017ff09f90860000000000000000000000000000000000000000000000000000000081525081526020016040518060400160405280600481526020017ff09f90880000000000000000000000000000000000000000000000000000000081525081526020016040518060400160405280600481526020017ff09f90a90000000000000000000000000000000000000000000000000000000081525081526020016040518060400160405280600481526020017ff09f90be0000000000000000000000000000000000000000000000000000000081525081526020016040518060400160405280600481526020017ff09f92900000000000000000000000000000000000000000000000000000000081525081526020016040518060400160405280600481526020017ff09f8cb80000000000000000000000000000000000000000000000000000000081525081526020016040518060400160405280600481526020017ff09f8cb70000000000000000000000000000000000000000000000000000000081525081526020016040518060400160405280600481526020017ff09f8d800000000000000000000000000000000000000000000000000000000081525081526020016040518060400160405280600481526020017ff09f8cb90000000000000000000000000000000000000000000000000000000081525081526020016040518060400160405280600481526020017ff09f8cbb0000000000000000000000000000000000000000000000000000000081525081526020016040518060400160405280600481526020017ff09f8cba0000000000000000000000000000000000000000000000000000000081525081526020016040518060400160405280600481526020017ff09f8d810000000000000000000000000000000000000000000000000000000081525081526020016040518060400160405280600481526020017ff09f8d830000000000000000000000000000000000000000000000000000000081525081526020016040518060400160405280600481526020017ff09f8d820000000000000000000000000000000000000000000000000000000081525081526020016040518060400160405280600481526020017ff09f8cbf0000000000000000000000000000000000000000000000000000000081525081526020016040518060400160405280600481526020017ff09f8cbe0000000000000000000000000000000000000000000000000000000081525081526020016040518060400160405280600481526020017ff09f8d840000000000000000000000000000000000000000000000000000000081525081526020016040518060400160405280600481526020017ff09f8cb50000000000000000000000000000000000000000000000000000000081525081526020016040518060400160405280600481526020017ff09f8cb40000000000000000000000000000000000000000000000000000000081525081526020016040518060400160405280600481526020017ff09f8cb20000000000000000000000000000000000000000000000000000000081525081526020016040518060400160405280600481526020017ff09f8cb30000000000000000000000000000000000000000000000000000000081525081526020016040518060400160405280600481526020017ff09f8cb00000000000000000000000000000000000000000000000000000000081525081526020016040518060400160405280600481526020017ff09f8cb10000000000000000000000000000000000000000000000000000000081525081526020016040518060400160405280600481526020017ff09f8cbc0000000000000000000000000000000000000000000000000000000081525081526020016040518060400160405280600481526020017ff09f8c900000000000000000000000000000000000000000000000000000000081525081526020016040518060400160405280600481526020017ff09f8c9e0000000000000000000000000000000000000000000000000000000081525081526020016040518060400160405280600481526020017ff09f8c9d0000000000000000000000000000000000000000000000000000000081525081526020016040518060400160405280600481526020017ff09f8c9a0000000000000000000000000000000000000000000000000000000081525081526020016040518060400160405280600481526020017ff09f8c910000000000000000000000000000000000000000000000000000000081525081526020016040518060400160405280600481526020017ff09f8c920000000000000000000000000000000000000000000000000000000081525081526020016040518060400160405280600481526020017ff09f8c930000000000000000000000000000000000000000000000000000000081525081526020016040518060400160405280600481526020017ff09f8c940000000000000000000000000000000000000000000000000000000081525081526020016040518060400160405280600481526020017ff09f8c950000000000000000000000000000000000000000000000000000000081525081526020016040518060400160405280600481526020017ff09f8c960000000000000000000000000000000000000000000000000000000081525081526020016040518060400160405280600481526020017ff09f8c970000000000000000000000000000000000000000000000000000000081525081526020016040518060400160405280600481526020017ff09f8c980000000000000000000000000000000000000000000000000000000081525081526020016040518060400160405280600481526020017ff09f8c9c0000000000000000000000000000000000000000000000000000000081525081526020016040518060400160405280600481526020017ff09f8c9b0000000000000000000000000000000000000000000000000000000081525081526020016040518060400160405280600481526020017ff09f8c9900000000000000000000000000000000000000000000000000000000815250815250600b906062620042b49291906200c0d3565b5060405180610ce001604052806040518060400160405280600481526020017ff09f8c8d0000000000000000000000000000000000000000000000000000000081525081526020016040518060400160405280600481526020017ff09f8c8e0000000000000000000000000000000000000000000000000000000081525081526020016040518060400160405280600481526020017ff09f8c8f0000000000000000000000000000000000000000000000000000000081525081526020016040518060400160405280600481526020017ff09f8c8b0000000000000000000000000000000000000000000000000000000081525081526020016040518060400160405280600481526020017ff09f8c8c0000000000000000000000000000000000000000000000000000000081525081526020016040518060400160405280600481526020017ff09f8ca00000000000000000000000000000000000000000000000000000000081525081526020016040518060400160405280600381526020017fe2ad90000000000000000000000000000000000000000000000000000000000081525081526020016040518060400160405280600381526020017fe29880000000000000000000000000000000000000000000000000000000000081525081526020016040518060400160405280600381526020017fe29b85000000000000000000000000000000000000000000000000000000000081525081526020016040518060400160405280600381526020017fe29881000000000000000000000000000000000000000000000000000000000081525081526020016040518060400160405280600381526020017fe29aa1000000000000000000000000000000000000000000000000000000000081525081526020016040518060400160405280600381526020017fe29894000000000000000000000000000000000000000000000000000000000081525081526020016040518060400160405280600381526020017fe29d84000000000000000000000000000000000000000000000000000000000081525081526020016040518060400160405280600381526020017fe29b84000000000000000000000000000000000000000000000000000000000081525081526020016040518060400160405280600481526020017ff09f8c800000000000000000000000000000000000000000000000000000000081525081526020016040518060400160405280600481526020017ff09f8c810000000000000000000000000000000000000000000000000000000081525081526020016040518060400160405280600481526020017ff09f8c880000000000000000000000000000000000000000000000000000000081525081526020016040518060400160405280600481526020017ff09f8c8a0000000000000000000000000000000000000000000000000000000081525081526020016040518060400160405280600481526020017ff09f8e8d0000000000000000000000000000000000000000000000000000000081525081526020016040518060400160405280600481526020017ff09f929d0000000000000000000000000000000000000000000000000000000081525081526020016040518060400160405280600481526020017ff09f8e8e0000000000000000000000000000000000000000000000000000000081525081526020016040518060400160405280600481526020017ff09f8e920000000000000000000000000000000000000000000000000000000081525081526020016040518060400160405280600481526020017ff09f8e930000000000000000000000000000000000000000000000000000000081525081526020016040518060400160405280600481526020017ff09f8e8f0000000000000000000000000000000000000000000000000000000081525081526020016040518060400160405280600481526020017ff09f8e860000000000000000000000000000000000000000000000000000000081525081526020016040518060400160405280600481526020017ff09f8e870000000000000000000000000000000000000000000000000000000081525081526020016040518060400160405280600481526020017ff09f8e900000000000000000000000000000000000000000000000000000000081525081526020016040518060400160405280600481526020017ff09f8e910000000000000000000000000000000000000000000000000000000081525081526020016040518060400160405280600481526020017ff09f8e830000000000000000000000000000000000000000000000000000000081525081526020016040518060400160405280600481526020017ff09f91bb0000000000000000000000000000000000000000000000000000000081525081526020016040518060400160405280600481526020017ff09f8e850000000000000000000000000000000000000000000000000000000081525081526020016040518060400160405280600481526020017ff09f8e840000000000000000000000000000000000000000000000000000000081525081526020016040518060400160405280600481526020017ff09f8e810000000000000000000000000000000000000000000000000000000081525081526020016040518060400160405280600481526020017ff09f8e8b0000000000000000000000000000000000000000000000000000000081525081526020016040518060400160405280600481526020017ff09f8e890000000000000000000000000000000000000000000000000000000081525081526020016040518060400160405280600481526020017ff09f8e8a0000000000000000000000000000000000000000000000000000000081525081526020016040518060400160405280600481526020017ff09f8e880000000000000000000000000000000000000000000000000000000081525081526020016040518060400160405280600481526020017ff09f8e8c0000000000000000000000000000000000000000000000000000000081525081526020016040518060400160405280600481526020017ff09f94ae0000000000000000000000000000000000000000000000000000000081525081526020016040518060400160405280600481526020017ff09f8ea50000000000000000000000000000000000000000000000000000000081525081526020016040518060400160405280600481526020017ff09f93b70000000000000000000000000000000000000000000000000000000081525081526020016040518060400160405280600481526020017ff09f93b90000000000000000000000000000000000000000000000000000000081525081526020016040518060400160405280600481526020017ff09f93bc0000000000000000000000000000000000000000000000000000000081525081526020016040518060400160405280600481526020017ff09f92bf0000000000000000000000000000000000000000000000000000000081525081526020016040518060400160405280600481526020017ff09f93800000000000000000000000000000000000000000000000000000000081525081526020016040518060400160405280600481526020017ff09f92bd0000000000000000000000000000000000000000000000000000000081525081526020016040518060400160405280600481526020017ff09f92be0000000000000000000000000000000000000000000000000000000081525081526020016040518060400160405280600481526020017ff09f92bb0000000000000000000000000000000000000000000000000000000081525081526020016040518060400160405280600481526020017ff09f93b10000000000000000000000000000000000000000000000000000000081525081526020016040518060400160405280600381526020017fe2988e000000000000000000000000000000000000000000000000000000000081525081526020016040518060400160405280600481526020017ff09f939e0000000000000000000000000000000000000000000000000000000081525081526020016040518060400160405280600481526020017ff09f939f0000000000000000000000000000000000000000000000000000000081525081526020016040518060400160405280600481526020017ff09f93a00000000000000000000000000000000000000000000000000000000081525081526020016040518060400160405280600481526020017ff09f93a10000000000000000000000000000000000000000000000000000000081525081526020016040518060400160405280600481526020017ff09f93ba0000000000000000000000000000000000000000000000000000000081525081526020016040518060400160405280600481526020017ff09f93bb0000000000000000000000000000000000000000000000000000000081525081526020016040518060400160405280600481526020017ff09f948a0000000000000000000000000000000000000000000000000000000081525081526020016040518060400160405280600481526020017ff09f94890000000000000000000000000000000000000000000000000000000081525081526020016040518060400160405280600481526020017ff09f94880000000000000000000000000000000000000000000000000000000081525081526020016040518060400160405280600481526020017ff09f94870000000000000000000000000000000000000000000000000000000081525081526020016040518060400160405280600481526020017ff09f94940000000000000000000000000000000000000000000000000000000081525081526020016040518060400160405280600481526020017ff09f94950000000000000000000000000000000000000000000000000000000081525081526020016040518060400160405280600481526020017ff09f93a20000000000000000000000000000000000000000000000000000000081525081526020016040518060400160405280600481526020017ff09f93a30000000000000000000000000000000000000000000000000000000081525081526020016040518060400160405280600381526020017fe28fb3000000000000000000000000000000000000000000000000000000000081525081526020016040518060400160405280600381526020017fe28c9b000000000000000000000000000000000000000000000000000000000081525081526020016040518060400160405280600381526020017fe28fb0000000000000000000000000000000000000000000000000000000000081525081526020016040518060400160405280600381526020017fe28c9a000000000000000000000000000000000000000000000000000000000081525081526020016040518060400160405280600481526020017ff09f94930000000000000000000000000000000000000000000000000000000081525081526020016040518060400160405280600481526020017ff09f94920000000000000000000000000000000000000000000000000000000081525081526020016040518060400160405280600481526020017ff09f948f0000000000000000000000000000000000000000000000000000000081525081526020016040518060400160405280600481526020017ff09f94900000000000000000000000000000000000000000000000000000000081525081526020016040518060400160405280600481526020017ff09f94910000000000000000000000000000000000000000000000000000000081525081526020016040518060400160405280600481526020017ff09f948e0000000000000000000000000000000000000000000000000000000081525081526020016040518060400160405280600481526020017ff09f92a10000000000000000000000000000000000000000000000000000000081525081526020016040518060400160405280600481526020017ff09f94a60000000000000000000000000000000000000000000000000000000081525081526020016040518060400160405280600481526020017ff09f94860000000000000000000000000000000000000000000000000000000081525081526020016040518060400160405280600481526020017ff09f94850000000000000000000000000000000000000000000000000000000081525081526020016040518060400160405280600481526020017ff09f948c0000000000000000000000000000000000000000000000000000000081525081526020016040518060400160405280600481526020017ff09f948b0000000000000000000000000000000000000000000000000000000081525081526020016040518060400160405280600481526020017ff09f948d0000000000000000000000000000000000000000000000000000000081525081526020016040518060400160405280600481526020017ff09f9b810000000000000000000000000000000000000000000000000000000081525081526020016040518060400160405280600481526020017ff09f9b800000000000000000000000000000000000000000000000000000000081525081526020016040518060400160405280600481526020017ff09f9abf0000000000000000000000000000000000000000000000000000000081525081526020016040518060400160405280600481526020017ff09f9abd0000000000000000000000000000000000000000000000000000000081525081526020016040518060400160405280600481526020017ff09f94a70000000000000000000000000000000000000000000000000000000081525081526020016040518060400160405280600481526020017ff09f94a90000000000000000000000000000000000000000000000000000000081525081526020016040518060400160405280600481526020017ff09f94a80000000000000000000000000000000000000000000000000000000081525081526020016040518060400160405280600481526020017ff09f9aaa0000000000000000000000000000000000000000000000000000000081525081526020016040518060400160405280600481526020017ff09f9aac0000000000000000000000000000000000000000000000000000000081525081526020016040518060400160405280600481526020017ff09f92a30000000000000000000000000000000000000000000000000000000081525081526020016040518060400160405280600481526020017ff09f94ab0000000000000000000000000000000000000000000000000000000081525081526020016040518060400160405280600481526020017ff09f94aa0000000000000000000000000000000000000000000000000000000081525081526020016040518060400160405280600481526020017ff09f928a0000000000000000000000000000000000000000000000000000000081525081526020016040518060400160405280600481526020017ff09f92890000000000000000000000000000000000000000000000000000000081525081526020016040518060400160405280600481526020017ff09f92b00000000000000000000000000000000000000000000000000000000081525081526020016040518060400160405280600481526020017ff09f92b40000000000000000000000000000000000000000000000000000000081525081526020016040518060400160405280600481526020017ff09f92b50000000000000000000000000000000000000000000000000000000081525081526020016040518060400160405280600481526020017ff09f92b70000000000000000000000000000000000000000000000000000000081525081526020016040518060400160405280600481526020017ff09f92b60000000000000000000000000000000000000000000000000000000081525081526020016040518060400160405280600481526020017ff09f92b30000000000000000000000000000000000000000000000000000000081525081526020016040518060400160405280600481526020017ff09f92b80000000000000000000000000000000000000000000000000000000081525081526020016040518060400160405280600481526020017ff09f93b200000000000000000000000000000000000000000000000000000000815250815250600c90606762005a8e9291906200c13a565b506040518061100001604052806040518060400160405280600481526020017ff09f93a70000000000000000000000000000000000000000000000000000000081525081526020016040518060400160405280600481526020017ff09f93a50000000000000000000000000000000000000000000000000000000081525081526020016040518060400160405280600481526020017ff09f93a40000000000000000000000000000000000000000000000000000000081525081526020016040518060400160405280600381526020017fe29c89000000000000000000000000000000000000000000000000000000000081525081526020016040518060400160405280600481526020017ff09f93a90000000000000000000000000000000000000000000000000000000081525081526020016040518060400160405280600481526020017ff09f93a80000000000000000000000000000000000000000000000000000000081525081526020016040518060400160405280600481526020017ff09f93af0000000000000000000000000000000000000000000000000000000081525081526020016040518060400160405280600481526020017ff09f93ab0000000000000000000000000000000000000000000000000000000081525081526020016040518060400160405280600481526020017ff09f93aa0000000000000000000000000000000000000000000000000000000081525081526020016040518060400160405280600481526020017ff09f93ac0000000000000000000000000000000000000000000000000000000081525081526020016040518060400160405280600481526020017ff09f93ad0000000000000000000000000000000000000000000000000000000081525081526020016040518060400160405280600481526020017ff09f93ae0000000000000000000000000000000000000000000000000000000081525081526020016040518060400160405280600481526020017ff09f93a60000000000000000000000000000000000000000000000000000000081525081526020016040518060400160405280600481526020017ff09f939d0000000000000000000000000000000000000000000000000000000081525081526020016040518060400160405280600481526020017ff09f93840000000000000000000000000000000000000000000000000000000081525081526020016040518060400160405280600481526020017ff09f93830000000000000000000000000000000000000000000000000000000081525081526020016040518060400160405280600481526020017ff09f93910000000000000000000000000000000000000000000000000000000081525081526020016040518060400160405280600481526020017ff09f938a0000000000000000000000000000000000000000000000000000000081525081526020016040518060400160405280600481526020017ff09f93880000000000000000000000000000000000000000000000000000000081525081526020016040518060400160405280600481526020017ff09f93890000000000000000000000000000000000000000000000000000000081525081526020016040518060400160405280600481526020017ff09f939c0000000000000000000000000000000000000000000000000000000081525081526020016040518060400160405280600481526020017ff09f938b0000000000000000000000000000000000000000000000000000000081525081526020016040518060400160405280600481526020017ff09f93850000000000000000000000000000000000000000000000000000000081525081526020016040518060400160405280600481526020017ff09f93860000000000000000000000000000000000000000000000000000000081525081526020016040518060400160405280600481526020017ff09f93870000000000000000000000000000000000000000000000000000000081525081526020016040518060400160405280600481526020017ff09f93810000000000000000000000000000000000000000000000000000000081525081526020016040518060400160405280600481526020017ff09f93820000000000000000000000000000000000000000000000000000000081525081526020016040518060400160405280600381526020017fe29c82000000000000000000000000000000000000000000000000000000000081525081526020016040518060400160405280600481526020017ff09f938c0000000000000000000000000000000000000000000000000000000081525081526020016040518060400160405280600481526020017ff09f938e0000000000000000000000000000000000000000000000000000000081525081526020016040518060400160405280600381526020017fe29c92000000000000000000000000000000000000000000000000000000000081525081526020016040518060400160405280600381526020017fe29c8f000000000000000000000000000000000000000000000000000000000081525081526020016040518060400160405280600481526020017ff09f938f0000000000000000000000000000000000000000000000000000000081525081526020016040518060400160405280600481526020017ff09f93900000000000000000000000000000000000000000000000000000000081525081526020016040518060400160405280600481526020017ff09f93950000000000000000000000000000000000000000000000000000000081525081526020016040518060400160405280600481526020017ff09f93970000000000000000000000000000000000000000000000000000000081525081526020016040518060400160405280600481526020017ff09f93980000000000000000000000000000000000000000000000000000000081525081526020016040518060400160405280600481526020017ff09f93990000000000000000000000000000000000000000000000000000000081525081526020016040518060400160405280600481526020017ff09f93930000000000000000000000000000000000000000000000000000000081525081526020016040518060400160405280600481526020017ff09f93940000000000000000000000000000000000000000000000000000000081525081526020016040518060400160405280600481526020017ff09f93920000000000000000000000000000000000000000000000000000000081525081526020016040518060400160405280600481526020017ff09f939a0000000000000000000000000000000000000000000000000000000081525081526020016040518060400160405280600481526020017ff09f93960000000000000000000000000000000000000000000000000000000081525081526020016040518060400160405280600481526020017ff09f94960000000000000000000000000000000000000000000000000000000081525081526020016040518060400160405280600481526020017ff09f939b0000000000000000000000000000000000000000000000000000000081525081526020016040518060400160405280600481526020017ff09f94ac0000000000000000000000000000000000000000000000000000000081525081526020016040518060400160405280600481526020017ff09f94ad0000000000000000000000000000000000000000000000000000000081525081526020016040518060400160405280600481526020017ff09f93b00000000000000000000000000000000000000000000000000000000081525081526020016040518060400160405280600481526020017ff09f8ea80000000000000000000000000000000000000000000000000000000081525081526020016040518060400160405280600481526020017ff09f8eac0000000000000000000000000000000000000000000000000000000081525081526020016040518060400160405280600481526020017ff09f8ea40000000000000000000000000000000000000000000000000000000081525081526020016040518060400160405280600481526020017ff09f8ea70000000000000000000000000000000000000000000000000000000081525081526020016040518060400160405280600481526020017ff09f8ebc0000000000000000000000000000000000000000000000000000000081525081526020016040518060400160405280600481526020017ff09f8eb50000000000000000000000000000000000000000000000000000000081525081526020016040518060400160405280600481526020017ff09f8eb60000000000000000000000000000000000000000000000000000000081525081526020016040518060400160405280600481526020017ff09f8eb90000000000000000000000000000000000000000000000000000000081525081526020016040518060400160405280600481526020017ff09f8ebb0000000000000000000000000000000000000000000000000000000081525081526020016040518060400160405280600481526020017ff09f8eba0000000000000000000000000000000000000000000000000000000081525081526020016040518060400160405280600481526020017ff09f8eb70000000000000000000000000000000000000000000000000000000081525081526020016040518060400160405280600481526020017ff09f8eb80000000000000000000000000000000000000000000000000000000081525081526020016040518060400160405280600481526020017ff09f91be0000000000000000000000000000000000000000000000000000000081525081526020016040518060400160405280600481526020017ff09f8eae0000000000000000000000000000000000000000000000000000000081525081526020016040518060400160405280600481526020017ff09f838f0000000000000000000000000000000000000000000000000000000081525081526020016040518060400160405280600481526020017ff09f8eb40000000000000000000000000000000000000000000000000000000081525081526020016040518060400160405280600481526020017ff09f80840000000000000000000000000000000000000000000000000000000081525081526020016040518060400160405280600481526020017ff09f8eb20000000000000000000000000000000000000000000000000000000081525081526020016040518060400160405280600481526020017ff09f8eaf0000000000000000000000000000000000000000000000000000000081525081526020016040518060400160405280600481526020017ff09f8f880000000000000000000000000000000000000000000000000000000081525081526020016040518060400160405280600481526020017ff09f8f800000000000000000000000000000000000000000000000000000000081525081526020016040518060400160405280600381526020017fe29abd000000000000000000000000000000000000000000000000000000000081525081526020016040518060400160405280600381526020017fe29abe000000000000000000000000000000000000000000000000000000000081525081526020016040518060400160405280600481526020017ff09f8ebe0000000000000000000000000000000000000000000000000000000081525081526020016040518060400160405280600481526020017ff09f8eb10000000000000000000000000000000000000000000000000000000081525081526020016040518060400160405280600481526020017ff09f8f890000000000000000000000000000000000000000000000000000000081525081526020016040518060400160405280600481526020017ff09f8eb30000000000000000000000000000000000000000000000000000000081525081526020016040518060400160405280600381526020017fe29bb3000000000000000000000000000000000000000000000000000000000081525081526020016040518060400160405280600481526020017ff09f9ab50000000000000000000000000000000000000000000000000000000081525081526020016040518060400160405280600481526020017ff09f9ab40000000000000000000000000000000000000000000000000000000081525081526020016040518060400160405280600481526020017ff09f8f810000000000000000000000000000000000000000000000000000000081525081526020016040518060400160405280600481526020017ff09f8f870000000000000000000000000000000000000000000000000000000081525081526020016040518060400160405280600481526020017ff09f8f860000000000000000000000000000000000000000000000000000000081525081526020016040518060400160405280600481526020017ff09f8ebf0000000000000000000000000000000000000000000000000000000081525081526020016040518060400160405280600481526020017ff09f8f820000000000000000000000000000000000000000000000000000000081525081526020016040518060400160405280600481526020017ff09f8f8a0000000000000000000000000000000000000000000000000000000081525081526020016040518060400160405280600481526020017ff09f8f840000000000000000000000000000000000000000000000000000000081525081526020016040518060400160405280600481526020017ff09f8ea30000000000000000000000000000000000000000000000000000000081525081526020016040518060400160405280600381526020017fe29895000000000000000000000000000000000000000000000000000000000081525081526020016040518060400160405280600481526020017ff09f8db50000000000000000000000000000000000000000000000000000000081525081526020016040518060400160405280600481526020017ff09f8db60000000000000000000000000000000000000000000000000000000081525081526020016040518060400160405280600481526020017ff09f8dbc0000000000000000000000000000000000000000000000000000000081525081526020016040518060400160405280600481526020017ff09f8dba0000000000000000000000000000000000000000000000000000000081525081526020016040518060400160405280600481526020017ff09f8dbb0000000000000000000000000000000000000000000000000000000081525081526020016040518060400160405280600481526020017ff09f8db80000000000000000000000000000000000000000000000000000000081525081526020016040518060400160405280600481526020017ff09f8db90000000000000000000000000000000000000000000000000000000081525081526020016040518060400160405280600481526020017ff09f8db70000000000000000000000000000000000000000000000000000000081525081526020016040518060400160405280600481526020017ff09f8db40000000000000000000000000000000000000000000000000000000081525081526020016040518060400160405280600481526020017ff09f8d950000000000000000000000000000000000000000000000000000000081525081526020016040518060400160405280600481526020017ff09f8d940000000000000000000000000000000000000000000000000000000081525081526020016040518060400160405280600481526020017ff09f8d9f0000000000000000000000000000000000000000000000000000000081525081526020016040518060400160405280600481526020017ff09f8d970000000000000000000000000000000000000000000000000000000081525081526020016040518060400160405280600481526020017ff09f8d960000000000000000000000000000000000000000000000000000000081525081526020016040518060400160405280600481526020017ff09f8d9d0000000000000000000000000000000000000000000000000000000081525081526020016040518060400160405280600481526020017ff09f8d9b0000000000000000000000000000000000000000000000000000000081525081526020016040518060400160405280600481526020017ff09f8da40000000000000000000000000000000000000000000000000000000081525081526020016040518060400160405280600481526020017ff09f8db10000000000000000000000000000000000000000000000000000000081525081526020016040518060400160405280600481526020017ff09f8da30000000000000000000000000000000000000000000000000000000081525081526020016040518060400160405280600481526020017ff09f8da50000000000000000000000000000000000000000000000000000000081525081526020016040518060400160405280600481526020017ff09f8d990000000000000000000000000000000000000000000000000000000081525081526020016040518060400160405280600481526020017ff09f8d980000000000000000000000000000000000000000000000000000000081525081526020016040518060400160405280600481526020017ff09f8d9a0000000000000000000000000000000000000000000000000000000081525081526020016040518060400160405280600481526020017ff09f8d9c0000000000000000000000000000000000000000000000000000000081525081526020016040518060400160405280600481526020017ff09f8db20000000000000000000000000000000000000000000000000000000081525081526020016040518060400160405280600481526020017ff09f8da20000000000000000000000000000000000000000000000000000000081525081526020016040518060400160405280600481526020017ff09f8da10000000000000000000000000000000000000000000000000000000081525081526020016040518060400160405280600481526020017ff09f8db30000000000000000000000000000000000000000000000000000000081525081526020016040518060400160405280600481526020017ff09f8d9e0000000000000000000000000000000000000000000000000000000081525081526020016040518060400160405280600481526020017ff09f8da90000000000000000000000000000000000000000000000000000000081525081526020016040518060400160405280600481526020017ff09f8dae0000000000000000000000000000000000000000000000000000000081525081526020016040518060400160405280600481526020017ff09f8da60000000000000000000000000000000000000000000000000000000081525081526020016040518060400160405280600481526020017ff09f8da80000000000000000000000000000000000000000000000000000000081525081526020016040518060400160405280600481526020017ff09f8da70000000000000000000000000000000000000000000000000000000081525081526020016040518060400160405280600481526020017ff09f8e820000000000000000000000000000000000000000000000000000000081525081526020016040518060400160405280600481526020017ff09f8db00000000000000000000000000000000000000000000000000000000081525081526020016040518060400160405280600481526020017ff09f8daa0000000000000000000000000000000000000000000000000000000081525081526020016040518060400160405280600481526020017ff09f8dab0000000000000000000000000000000000000000000000000000000081525081526020016040518060400160405280600481526020017ff09f8dac0000000000000000000000000000000000000000000000000000000081525081526020016040518060400160405280600481526020017ff09f8dad0000000000000000000000000000000000000000000000000000000081525081526020016040518060400160405280600481526020017ff09f8daf00000000000000000000000000000000000000000000000000000000815250815250600d9060806200782b9291906200c1a1565b50604051806125a001604052806040518060400160405280600481526020017ff09f8d8e0000000000000000000000000000000000000000000000000000000081525081526020016040518060400160405280600481526020017ff09f8d8f0000000000000000000000000000000000000000000000000000000081525081526020016040518060400160405280600481526020017ff09f8d8a0000000000000000000000000000000000000000000000000000000081525081526020016040518060400160405280600481526020017ff09f8d8b0000000000000000000000000000000000000000000000000000000081525081526020016040518060400160405280600481526020017ff09f8d920000000000000000000000000000000000000000000000000000000081525081526020016040518060400160405280600481526020017ff09f8d870000000000000000000000000000000000000000000000000000000081525081526020016040518060400160405280600481526020017ff09f8d890000000000000000000000000000000000000000000000000000000081525081526020016040518060400160405280600481526020017ff09f8d930000000000000000000000000000000000000000000000000000000081525081526020016040518060400160405280600481526020017ff09f8d910000000000000000000000000000000000000000000000000000000081525081526020016040518060400160405280600481526020017ff09f8d880000000000000000000000000000000000000000000000000000000081525081526020016040518060400160405280600481526020017ff09f8d8c0000000000000000000000000000000000000000000000000000000081525081526020016040518060400160405280600481526020017ff09f8d900000000000000000000000000000000000000000000000000000000081525081526020016040518060400160405280600481526020017ff09f8d8d0000000000000000000000000000000000000000000000000000000081525081526020016040518060400160405280600481526020017ff09f8da00000000000000000000000000000000000000000000000000000000081525081526020016040518060400160405280600481526020017ff09f8d860000000000000000000000000000000000000000000000000000000081525081526020016040518060400160405280600481526020017ff09f8d850000000000000000000000000000000000000000000000000000000081525081526020016040518060400160405280600481526020017ff09f8cbd0000000000000000000000000000000000000000000000000000000081525081526020016040518060400160405280600481526020017ff09f8fa00000000000000000000000000000000000000000000000000000000081525081526020016040518060400160405280600481526020017ff09f8fa10000000000000000000000000000000000000000000000000000000081525081526020016040518060400160405280600481526020017ff09f8fab0000000000000000000000000000000000000000000000000000000081525081526020016040518060400160405280600481526020017ff09f8fa20000000000000000000000000000000000000000000000000000000081525081526020016040518060400160405280600481526020017ff09f8fa30000000000000000000000000000000000000000000000000000000081525081526020016040518060400160405280600481526020017ff09f8fa50000000000000000000000000000000000000000000000000000000081525081526020016040518060400160405280600481526020017ff09f8fa60000000000000000000000000000000000000000000000000000000081525081526020016040518060400160405280600481526020017ff09f8faa0000000000000000000000000000000000000000000000000000000081525081526020016040518060400160405280600481526020017ff09f8fa90000000000000000000000000000000000000000000000000000000081525081526020016040518060400160405280600481526020017ff09f8fa80000000000000000000000000000000000000000000000000000000081525081526020016040518060400160405280600481526020017ff09f92920000000000000000000000000000000000000000000000000000000081525081526020016040518060400160405280600381526020017fe29baa000000000000000000000000000000000000000000000000000000000081525081526020016040518060400160405280600481526020017ff09f8fac0000000000000000000000000000000000000000000000000000000081525081526020016040518060400160405280600481526020017ff09f8fa40000000000000000000000000000000000000000000000000000000081525081526020016040518060400160405280600481526020017ff09f8c870000000000000000000000000000000000000000000000000000000081525081526020016040518060400160405280600481526020017ff09f8c860000000000000000000000000000000000000000000000000000000081525081526020016040518060400160405280600481526020017ff09f8faf0000000000000000000000000000000000000000000000000000000081525081526020016040518060400160405280600481526020017ff09f8fb00000000000000000000000000000000000000000000000000000000081525081526020016040518060400160405280600381526020017fe29bba000000000000000000000000000000000000000000000000000000000081525081526020016040518060400160405280600481526020017ff09f8fad0000000000000000000000000000000000000000000000000000000081525081526020016040518060400160405280600481526020017ff09f97bc0000000000000000000000000000000000000000000000000000000081525081526020016040518060400160405280600481526020017ff09f97be0000000000000000000000000000000000000000000000000000000081525081526020016040518060400160405280600481526020017ff09f97bb0000000000000000000000000000000000000000000000000000000081525081526020016040518060400160405280600481526020017ff09f8c840000000000000000000000000000000000000000000000000000000081525081526020016040518060400160405280600481526020017ff09f8c850000000000000000000000000000000000000000000000000000000081525081526020016040518060400160405280600481526020017ff09f8c830000000000000000000000000000000000000000000000000000000081525081526020016040518060400160405280600481526020017ff09f97bd0000000000000000000000000000000000000000000000000000000081525081526020016040518060400160405280600481526020017ff09f8c890000000000000000000000000000000000000000000000000000000081525081526020016040518060400160405280600481526020017ff09f8ea00000000000000000000000000000000000000000000000000000000081525081526020016040518060400160405280600481526020017ff09f8ea10000000000000000000000000000000000000000000000000000000081525081526020016040518060400160405280600381526020017fe29bb2000000000000000000000000000000000000000000000000000000000081525081526020016040518060400160405280600481526020017ff09f8ea20000000000000000000000000000000000000000000000000000000081525081526020016040518060400160405280600481526020017ff09f9aa20000000000000000000000000000000000000000000000000000000081525081526020016040518060400160405280600381526020017fe29bb5000000000000000000000000000000000000000000000000000000000081525081526020016040518060400160405280600481526020017ff09f9aa40000000000000000000000000000000000000000000000000000000081525081526020016040518060400160405280600481526020017ff09f9aa30000000000000000000000000000000000000000000000000000000081525081526020016040518060400160405280600381526020017fe29a93000000000000000000000000000000000000000000000000000000000081525081526020016040518060400160405280600481526020017ff09f9a800000000000000000000000000000000000000000000000000000000081525081526020016040518060400160405280600381526020017fe29c88000000000000000000000000000000000000000000000000000000000081525081526020016040518060400160405280600481526020017ff09f92ba0000000000000000000000000000000000000000000000000000000081525081526020016040518060400160405280600481526020017ff09f9a810000000000000000000000000000000000000000000000000000000081525081526020016040518060400160405280600481526020017ff09f9a820000000000000000000000000000000000000000000000000000000081525081526020016040518060400160405280600481526020017ff09f9a8a0000000000000000000000000000000000000000000000000000000081525081526020016040518060400160405280600481526020017ff09f9a890000000000000000000000000000000000000000000000000000000081525081526020016040518060400160405280600481526020017ff09f9a9e0000000000000000000000000000000000000000000000000000000081525081526020016040518060400160405280600481526020017ff09f9a860000000000000000000000000000000000000000000000000000000081525081526020016040518060400160405280600481526020017ff09f9a840000000000000000000000000000000000000000000000000000000081525081526020016040518060400160405280600481526020017ff09f9a850000000000000000000000000000000000000000000000000000000081525081526020016040518060400160405280600481526020017ff09f9a880000000000000000000000000000000000000000000000000000000081525081526020016040518060400160405280600481526020017ff09f9a870000000000000000000000000000000000000000000000000000000081525081526020016040518060400160405280600481526020017ff09f9a9d0000000000000000000000000000000000000000000000000000000081525081526020016040518060400160405280600481526020017ff09f9a8b0000000000000000000000000000000000000000000000000000000081525081526020016040518060400160405280600481526020017ff09f9a830000000000000000000000000000000000000000000000000000000081525081526020016040518060400160405280600481526020017ff09f9a8e0000000000000000000000000000000000000000000000000000000081525081526020016040518060400160405280600481526020017ff09f9a8c0000000000000000000000000000000000000000000000000000000081525081526020016040518060400160405280600481526020017ff09f9a8d0000000000000000000000000000000000000000000000000000000081525081526020016040518060400160405280600481526020017ff09f9a990000000000000000000000000000000000000000000000000000000081525081526020016040518060400160405280600481526020017ff09f9a980000000000000000000000000000000000000000000000000000000081525081526020016040518060400160405280600481526020017ff09f9a970000000000000000000000000000000000000000000000000000000081525081526020016040518060400160405280600481526020017ff09f9a950000000000000000000000000000000000000000000000000000000081525081526020016040518060400160405280600481526020017ff09f9a960000000000000000000000000000000000000000000000000000000081525081526020016040518060400160405280600481526020017ff09f9a9b0000000000000000000000000000000000000000000000000000000081525081526020016040518060400160405280600481526020017ff09f9a9a0000000000000000000000000000000000000000000000000000000081525081526020016040518060400160405280600481526020017ff09f9aa80000000000000000000000000000000000000000000000000000000081525081526020016040518060400160405280600481526020017ff09f9a930000000000000000000000000000000000000000000000000000000081525081526020016040518060400160405280600481526020017ff09f9a940000000000000000000000000000000000000000000000000000000081525081526020016040518060400160405280600481526020017ff09f9a920000000000000000000000000000000000000000000000000000000081525081526020016040518060400160405280600481526020017ff09f9a910000000000000000000000000000000000000000000000000000000081525081526020016040518060400160405280600481526020017ff09f9a900000000000000000000000000000000000000000000000000000000081525081526020016040518060400160405280600481526020017ff09f9ab20000000000000000000000000000000000000000000000000000000081525081526020016040518060400160405280600481526020017ff09f9aa10000000000000000000000000000000000000000000000000000000081525081526020016040518060400160405280600481526020017ff09f9a9f0000000000000000000000000000000000000000000000000000000081525081526020016040518060400160405280600481526020017ff09f9aa00000000000000000000000000000000000000000000000000000000081525081526020016040518060400160405280600481526020017ff09f9a9c0000000000000000000000000000000000000000000000000000000081525081526020016040518060400160405280600481526020017ff09f92880000000000000000000000000000000000000000000000000000000081525081526020016040518060400160405280600481526020017ff09f9a8f0000000000000000000000000000000000000000000000000000000081525081526020016040518060400160405280600481526020017ff09f8eab0000000000000000000000000000000000000000000000000000000081525081526020016040518060400160405280600481526020017ff09f9aa60000000000000000000000000000000000000000000000000000000081525081526020016040518060400160405280600481526020017ff09f9aa50000000000000000000000000000000000000000000000000000000081525081526020016040518060400160405280600381526020017fe29aa0000000000000000000000000000000000000000000000000000000000081525081526020016040518060400160405280600481526020017ff09f9aa70000000000000000000000000000000000000000000000000000000081525081526020016040518060400160405280600481526020017ff09f94b00000000000000000000000000000000000000000000000000000000081525081526020016040518060400160405280600381526020017fe29bbd000000000000000000000000000000000000000000000000000000000081525081526020016040518060400160405280600481526020017ff09f8fae0000000000000000000000000000000000000000000000000000000081525081526020016040518060400160405280600481526020017ff09f8eb00000000000000000000000000000000000000000000000000000000081525081526020016040518060400160405280600381526020017fe299a8000000000000000000000000000000000000000000000000000000000081525081526020016040518060400160405280600481526020017ff09f97bf0000000000000000000000000000000000000000000000000000000081525081526020016040518060400160405280600481526020017ff09f8eaa0000000000000000000000000000000000000000000000000000000081525081526020016040518060400160405280600481526020017ff09f8ead0000000000000000000000000000000000000000000000000000000081525081526020016040518060400160405280600481526020017ff09f938d0000000000000000000000000000000000000000000000000000000081525081526020016040518060400160405280600481526020017ff09f9aa90000000000000000000000000000000000000000000000000000000081525081526020016040518060400160405280600381526020017fe2ac86000000000000000000000000000000000000000000000000000000000081525081526020016040518060400160405280600381526020017fe2ac87000000000000000000000000000000000000000000000000000000000081525081526020016040518060400160405280600381526020017fe2ac85000000000000000000000000000000000000000000000000000000000081525081526020016040518060400160405280600381526020017fe29ea1000000000000000000000000000000000000000000000000000000000081525081526020016040518060400160405280600481526020017ff09f94a00000000000000000000000000000000000000000000000000000000081525081526020016040518060400160405280600481526020017ff09f94a10000000000000000000000000000000000000000000000000000000081525081526020016040518060400160405280600481526020017ff09f94a40000000000000000000000000000000000000000000000000000000081525081526020016040518060400160405280600381526020017fe28697000000000000000000000000000000000000000000000000000000000081525081526020016040518060400160405280600381526020017fe28696000000000000000000000000000000000000000000000000000000000081525081526020016040518060400160405280600381526020017fe28698000000000000000000000000000000000000000000000000000000000081525081526020016040518060400160405280600381526020017fe28699000000000000000000000000000000000000000000000000000000000081525081526020016040518060400160405280600381526020017fe28694000000000000000000000000000000000000000000000000000000000081525081526020016040518060400160405280600381526020017fe28695000000000000000000000000000000000000000000000000000000000081525081526020016040518060400160405280600481526020017ff09f94840000000000000000000000000000000000000000000000000000000081525081526020016040518060400160405280600381526020017fe29780000000000000000000000000000000000000000000000000000000000081525081526020016040518060400160405280600381526020017fe296b6000000000000000000000000000000000000000000000000000000000081525081526020016040518060400160405280600481526020017ff09f94bc0000000000000000000000000000000000000000000000000000000081525081526020016040518060400160405280600481526020017ff09f94bd0000000000000000000000000000000000000000000000000000000081525081526020016040518060400160405280600381526020017fe286a9000000000000000000000000000000000000000000000000000000000081525081526020016040518060400160405280600381526020017fe286aa000000000000000000000000000000000000000000000000000000000081525081526020016040518060400160405280600381526020017fe284b9000000000000000000000000000000000000000000000000000000000081525081526020016040518060400160405280600381526020017fe28faa000000000000000000000000000000000000000000000000000000000081525081526020016040518060400160405280600381526020017fe28fa9000000000000000000000000000000000000000000000000000000000081525081526020016040518060400160405280600381526020017fe28fab000000000000000000000000000000000000000000000000000000000081525081526020016040518060400160405280600381526020017fe28fac000000000000000000000000000000000000000000000000000000000081525081526020016040518060400160405280600381526020017fe2a4b5000000000000000000000000000000000000000000000000000000000081525081526020016040518060400160405280600381526020017fe2a4b4000000000000000000000000000000000000000000000000000000000081525081526020016040518060400160405280600481526020017ff09f86970000000000000000000000000000000000000000000000000000000081525081526020016040518060400160405280600481526020017ff09f94800000000000000000000000000000000000000000000000000000000081525081526020016040518060400160405280600481526020017ff09f94810000000000000000000000000000000000000000000000000000000081525081526020016040518060400160405280600481526020017ff09f94820000000000000000000000000000000000000000000000000000000081525081526020016040518060400160405280600481526020017ff09f86950000000000000000000000000000000000000000000000000000000081525081526020016040518060400160405280600481526020017ff09f86990000000000000000000000000000000000000000000000000000000081525081526020016040518060400160405280600481526020017ff09f86920000000000000000000000000000000000000000000000000000000081525081526020016040518060400160405280600481526020017ff09f86930000000000000000000000000000000000000000000000000000000081525081526020016040518060400160405280600481526020017ff09f86960000000000000000000000000000000000000000000000000000000081525081526020016040518060400160405280600481526020017ff09f93b60000000000000000000000000000000000000000000000000000000081525081526020016040518060400160405280600481526020017ff09f8ea60000000000000000000000000000000000000000000000000000000081525081526020016040518060400160405280600481526020017ff09f88810000000000000000000000000000000000000000000000000000000081525081526020016040518060400160405280600481526020017ff09f88af0000000000000000000000000000000000000000000000000000000081525081526020016040518060400160405280600481526020017ff09f88b30000000000000000000000000000000000000000000000000000000081525081526020016040518060400160405280600481526020017ff09f88b50000000000000000000000000000000000000000000000000000000081525081526020016040518060400160405280600481526020017ff09f88b40000000000000000000000000000000000000000000000000000000081525081526020016040518060400160405280600481526020017ff09f88b20000000000000000000000000000000000000000000000000000000081525081526020016040518060400160405280600481526020017ff09f89900000000000000000000000000000000000000000000000000000000081525081526020016040518060400160405280600481526020017ff09f88b90000000000000000000000000000000000000000000000000000000081525081526020016040518060400160405280600481526020017ff09f88ba0000000000000000000000000000000000000000000000000000000081525081526020016040518060400160405280600481526020017ff09f88b60000000000000000000000000000000000000000000000000000000081525081526020016040518060400160405280600481526020017ff09f889a0000000000000000000000000000000000000000000000000000000081525081526020016040518060400160405280600481526020017ff09f9abb0000000000000000000000000000000000000000000000000000000081525081526020016040518060400160405280600481526020017ff09f9ab90000000000000000000000000000000000000000000000000000000081525081526020016040518060400160405280600481526020017ff09f9aba0000000000000000000000000000000000000000000000000000000081525081526020016040518060400160405280600481526020017ff09f9abc0000000000000000000000000000000000000000000000000000000081525081526020016040518060400160405280600481526020017ff09f9abe0000000000000000000000000000000000000000000000000000000081525081526020016040518060400160405280600481526020017ff09f9ab00000000000000000000000000000000000000000000000000000000081525081526020016040518060400160405280600481526020017ff09f9aae0000000000000000000000000000000000000000000000000000000081525081526020016040518060400160405280600481526020017ff09f85bf0000000000000000000000000000000000000000000000000000000081525081526020016040518060400160405280600381526020017fe299bf000000000000000000000000000000000000000000000000000000000081525081526020016040518060400160405280600481526020017ff09f9aad0000000000000000000000000000000000000000000000000000000081525081526020016040518060400160405280600481526020017ff09f88b70000000000000000000000000000000000000000000000000000000081525081526020016040518060400160405280600481526020017ff09f88b80000000000000000000000000000000000000000000000000000000081525081526020016040518060400160405280600481526020017ff09f88820000000000000000000000000000000000000000000000000000000081525081526020016040518060400160405280600381526020017fe29382000000000000000000000000000000000000000000000000000000000081525081526020016040518060400160405280600481526020017ff09f9b820000000000000000000000000000000000000000000000000000000081525081526020016040518060400160405280600481526020017ff09f9b840000000000000000000000000000000000000000000000000000000081525081526020016040518060400160405280600481526020017ff09f9b850000000000000000000000000000000000000000000000000000000081525081526020016040518060400160405280600481526020017ff09f9b830000000000000000000000000000000000000000000000000000000081525081526020016040518060400160405280600481526020017ff09f89910000000000000000000000000000000000000000000000000000000081525081526020016040518060400160405280600381526020017fe38a99000000000000000000000000000000000000000000000000000000000081525081526020016040518060400160405280600381526020017fe38a97000000000000000000000000000000000000000000000000000000000081525081526020016040518060400160405280600481526020017ff09f86910000000000000000000000000000000000000000000000000000000081525081526020016040518060400160405280600481526020017ff09f86980000000000000000000000000000000000000000000000000000000081525081526020016040518060400160405280600481526020017ff09f86940000000000000000000000000000000000000000000000000000000081525081526020016040518060400160405280600481526020017ff09f9aab0000000000000000000000000000000000000000000000000000000081525081526020016040518060400160405280600481526020017ff09f949e0000000000000000000000000000000000000000000000000000000081525081526020016040518060400160405280600481526020017ff09f93b50000000000000000000000000000000000000000000000000000000081525081526020016040518060400160405280600481526020017ff09f9aaf0000000000000000000000000000000000000000000000000000000081525081526020016040518060400160405280600481526020017ff09f9ab10000000000000000000000000000000000000000000000000000000081525081526020016040518060400160405280600481526020017ff09f9ab30000000000000000000000000000000000000000000000000000000081525081526020016040518060400160405280600481526020017ff09f9ab70000000000000000000000000000000000000000000000000000000081525081526020016040518060400160405280600481526020017ff09f9ab80000000000000000000000000000000000000000000000000000000081525081526020016040518060400160405280600381526020017fe29b94000000000000000000000000000000000000000000000000000000000081525081526020016040518060400160405280600381526020017fe29cb3000000000000000000000000000000000000000000000000000000000081525081526020016040518060400160405280600381526020017fe29d87000000000000000000000000000000000000000000000000000000000081525081526020016040518060400160405280600381526020017fe29d8e000000000000000000000000000000000000000000000000000000000081525081526020016040518060400160405280600381526020017fe29c85000000000000000000000000000000000000000000000000000000000081525081526020016040518060400160405280600381526020017fe29cb4000000000000000000000000000000000000000000000000000000000081525081526020016040518060400160405280600481526020017ff09f929f0000000000000000000000000000000000000000000000000000000081525081526020016040518060400160405280600481526020017ff09f869a0000000000000000000000000000000000000000000000000000000081525081526020016040518060400160405280600481526020017ff09f93b30000000000000000000000000000000000000000000000000000000081525081526020016040518060400160405280600481526020017ff09f93b40000000000000000000000000000000000000000000000000000000081525081526020016040518060400160405280600481526020017ff09f85b00000000000000000000000000000000000000000000000000000000081525081526020016040518060400160405280600481526020017ff09f85b10000000000000000000000000000000000000000000000000000000081525081526020016040518060400160405280600481526020017ff09f868e0000000000000000000000000000000000000000000000000000000081525081526020016040518060400160405280600481526020017ff09f85be0000000000000000000000000000000000000000000000000000000081525081526020016040518060400160405280600481526020017ff09f92a00000000000000000000000000000000000000000000000000000000081525081526020016040518060400160405280600381526020017fe29ebf000000000000000000000000000000000000000000000000000000000081525081526020016040518060400160405280600381526020017fe299bb000000000000000000000000000000000000000000000000000000000081525081526020016040518060400160405280600381526020017fe29988000000000000000000000000000000000000000000000000000000000081525081526020016040518060400160405280600381526020017fe29989000000000000000000000000000000000000000000000000000000000081525081526020016040518060400160405280600381526020017fe2998a000000000000000000000000000000000000000000000000000000000081525081526020016040518060400160405280600381526020017fe2998b000000000000000000000000000000000000000000000000000000000081525081526020016040518060400160405280600381526020017fe2998c000000000000000000000000000000000000000000000000000000000081525081526020016040518060400160405280600381526020017fe2998d000000000000000000000000000000000000000000000000000000000081525081526020016040518060400160405280600381526020017fe2998e000000000000000000000000000000000000000000000000000000000081525081526020016040518060400160405280600381526020017fe2998f000000000000000000000000000000000000000000000000000000000081525081526020016040518060400160405280600381526020017fe29990000000000000000000000000000000000000000000000000000000000081525081526020016040518060400160405280600381526020017fe29991000000000000000000000000000000000000000000000000000000000081525081526020016040518060400160405280600381526020017fe29992000000000000000000000000000000000000000000000000000000000081525081526020016040518060400160405280600381526020017fe29993000000000000000000000000000000000000000000000000000000000081525081526020016040518060400160405280600381526020017fe29b8e000000000000000000000000000000000000000000000000000000000081525081526020016040518060400160405280600481526020017ff09f94af0000000000000000000000000000000000000000000000000000000081525081526020016040518060400160405280600481526020017ff09f8fa70000000000000000000000000000000000000000000000000000000081525081526020016040518060400160405280600481526020017ff09f92b90000000000000000000000000000000000000000000000000000000081525081526020016040518060400160405280600481526020017ff09f92b20000000000000000000000000000000000000000000000000000000081525081526020016040518060400160405280600481526020017ff09f92b10000000000000000000000000000000000000000000000000000000081525081526020016040518060400160405280600281526020017fc2a900000000000000000000000000000000000000000000000000000000000081525081526020016040518060400160405280600281526020017fc2ae00000000000000000000000000000000000000000000000000000000000081525081526020016040518060400160405280600381526020017fe284a2000000000000000000000000000000000000000000000000000000000081525081526020016040518060400160405280600381526020017fe380bd000000000000000000000000000000000000000000000000000000000081525081526020016040518060400160405280600381526020017fe380b0000000000000000000000000000000000000000000000000000000000081525081526020016040518060400160405280600481526020017ff09f949d0000000000000000000000000000000000000000000000000000000081525081526020016040518060400160405280600481526020017ff09f949a0000000000000000000000000000000000000000000000000000000081525081526020016040518060400160405280600481526020017ff09f94990000000000000000000000000000000000000000000000000000000081525081526020016040518060400160405280600481526020017ff09f949b0000000000000000000000000000000000000000000000000000000081525081526020016040518060400160405280600481526020017ff09f949c0000000000000000000000000000000000000000000000000000000081525081526020016040518060400160405280600381526020017fe29d8c000000000000000000000000000000000000000000000000000000000081525081526020016040518060400160405280600381526020017fe2ad95000000000000000000000000000000000000000000000000000000000081525081526020016040518060400160405280600381526020017fe29d97000000000000000000000000000000000000000000000000000000000081525081526020016040518060400160405280600381526020017fe29d93000000000000000000000000000000000000000000000000000000000081525081526020016040518060400160405280600381526020017fe29d95000000000000000000000000000000000000000000000000000000000081525081526020016040518060400160405280600381526020017fe29d94000000000000000000000000000000000000000000000000000000000081525081526020016040518060400160405280600481526020017ff09f94830000000000000000000000000000000000000000000000000000000081525081526020016040518060400160405280600481526020017ff09f959b0000000000000000000000000000000000000000000000000000000081525081526020016040518060400160405280600481526020017ff09f95a70000000000000000000000000000000000000000000000000000000081525081526020016040518060400160405280600481526020017ff09f95900000000000000000000000000000000000000000000000000000000081525081526020016040518060400160405280600481526020017ff09f959c0000000000000000000000000000000000000000000000000000000081525081526020016040518060400160405280600481526020017ff09f95910000000000000000000000000000000000000000000000000000000081525081526020016040518060400160405280600481526020017ff09f959d0000000000000000000000000000000000000000000000000000000081525081526020016040518060400160405280600481526020017ff09f95920000000000000000000000000000000000000000000000000000000081525081526020016040518060400160405280600481526020017ff09f959e0000000000000000000000000000000000000000000000000000000081525081526020016040518060400160405280600481526020017ff09f95930000000000000000000000000000000000000000000000000000000081525081526020016040518060400160405280600481526020017ff09f959f0000000000000000000000000000000000000000000000000000000081525081526020016040518060400160405280600481526020017ff09f95940000000000000000000000000000000000000000000000000000000081525081526020016040518060400160405280600481526020017ff09f95a00000000000000000000000000000000000000000000000000000000081525081526020016040518060400160405280600481526020017ff09f95950000000000000000000000000000000000000000000000000000000081525081526020016040518060400160405280600481526020017ff09f95960000000000000000000000000000000000000000000000000000000081525081526020016040518060400160405280600481526020017ff09f95970000000000000000000000000000000000000000000000000000000081525081526020016040518060400160405280600481526020017ff09f95980000000000000000000000000000000000000000000000000000000081525081526020016040518060400160405280600481526020017ff09f95990000000000000000000000000000000000000000000000000000000081525081526020016040518060400160405280600481526020017ff09f959a0000000000000000000000000000000000000000000000000000000081525081526020016040518060400160405280600481526020017ff09f95a10000000000000000000000000000000000000000000000000000000081525081526020016040518060400160405280600481526020017ff09f95a20000000000000000000000000000000000000000000000000000000081525081526020016040518060400160405280600481526020017ff09f95a30000000000000000000000000000000000000000000000000000000081525081526020016040518060400160405280600481526020017ff09f95a40000000000000000000000000000000000000000000000000000000081525081526020016040518060400160405280600481526020017ff09f95a50000000000000000000000000000000000000000000000000000000081525081526020016040518060400160405280600481526020017ff09f95a60000000000000000000000000000000000000000000000000000000081525081526020016040518060400160405280600381526020017fe29c96000000000000000000000000000000000000000000000000000000000081525081526020016040518060400160405280600381526020017fe29e95000000000000000000000000000000000000000000000000000000000081525081526020016040518060400160405280600381526020017fe29e96000000000000000000000000000000000000000000000000000000000081525081526020016040518060400160405280600381526020017fe29e97000000000000000000000000000000000000000000000000000000000081525081526020016040518060400160405280600381526020017fe299a0000000000000000000000000000000000000000000000000000000000081525081526020016040518060400160405280600381526020017fe299a5000000000000000000000000000000000000000000000000000000000081525081526020016040518060400160405280600381526020017fe299a3000000000000000000000000000000000000000000000000000000000081525081526020016040518060400160405280600381526020017fe299a6000000000000000000000000000000000000000000000000000000000081525081526020016040518060400160405280600481526020017ff09f92ae0000000000000000000000000000000000000000000000000000000081525081526020016040518060400160405280600481526020017ff09f92af0000000000000000000000000000000000000000000000000000000081525081526020016040518060400160405280600381526020017fe29c94000000000000000000000000000000000000000000000000000000000081525081526020016040518060400160405280600381526020017fe29891000000000000000000000000000000000000000000000000000000000081525081526020016040518060400160405280600481526020017ff09f94980000000000000000000000000000000000000000000000000000000081525081526020016040518060400160405280600481526020017ff09f94970000000000000000000000000000000000000000000000000000000081525081526020016040518060400160405280600381526020017fe29eb0000000000000000000000000000000000000000000000000000000000081525081526020016040518060400160405280600481526020017ff09f94b10000000000000000000000000000000000000000000000000000000081525081526020016040518060400160405280600481526020017ff09f94b20000000000000000000000000000000000000000000000000000000081525081526020016040518060400160405280600481526020017ff09f94b30000000000000000000000000000000000000000000000000000000081525081526020016040518060400160405280600381526020017fe297bc000000000000000000000000000000000000000000000000000000000081525081526020016040518060400160405280600381526020017fe297bb000000000000000000000000000000000000000000000000000000000081525081526020016040518060400160405280600381526020017fe297be000000000000000000000000000000000000000000000000000000000081525081526020016040518060400160405280600381526020017fe297bd000000000000000000000000000000000000000000000000000000000081525081526020016040518060400160405280600381526020017fe296aa000000000000000000000000000000000000000000000000000000000081525081526020016040518060400160405280600381526020017fe296ab000000000000000000000000000000000000000000000000000000000081525081526020016040518060400160405280600481526020017ff09f94ba0000000000000000000000000000000000000000000000000000000081525081526020016040518060400160405280600381526020017fe2ac9c000000000000000000000000000000000000000000000000000000000081525081526020016040518060400160405280600381526020017fe2ac9b000000000000000000000000000000000000000000000000000000000081525081526020016040518060400160405280600381526020017fe29aab000000000000000000000000000000000000000000000000000000000081525081526020016040518060400160405280600381526020017fe29aaa000000000000000000000000000000000000000000000000000000000081525081526020016040518060400160405280600481526020017ff09f94b40000000000000000000000000000000000000000000000000000000081525081526020016040518060400160405280600481526020017ff09f94b50000000000000000000000000000000000000000000000000000000081525081526020016040518060400160405280600481526020017ff09f94bb0000000000000000000000000000000000000000000000000000000081525081526020016040518060400160405280600481526020017ff09f94b60000000000000000000000000000000000000000000000000000000081525081526020016040518060400160405280600481526020017ff09f94b70000000000000000000000000000000000000000000000000000000081525081526020016040518060400160405280600481526020017ff09f94b80000000000000000000000000000000000000000000000000000000081525081526020016040518060400160405280600481526020017ff09f94b900000000000000000000000000000000000000000000000000000000815250815250600e9061012d6200bda89291906200c208565b503480156200bdb657600080fd5b506040518060400160405280600981526020017f5371756172654e465400000000000000000000000000000000000000000000008152506040518060400160405280600681526020017f535155415245000000000000000000000000000000000000000000000000000081525081600090805190602001906200be3b9291906200bf74565b5080600190805190602001906200be549291906200bf74565b5050506200bea26040518060400160405280601e81526020017f54686973206973206d79204e465420636f6e74726163742e20576f61682100008152506200bea860201b620016641760201c565b6200c429565b6200bf48816040516024016200bebf91906200c33d565b6040516020818303038152906040527f41304fac000000000000000000000000000000000000000000000000000000007bffffffffffffffffffffffffffffffffffffffffffffffffffffffff19166020820180517bffffffffffffffffffffffffffffffffffffffffffffffffffffffff83818316178352505050506200bf4b60201b60201c565b50565b60008151905060006a636f6e736f6c652e6c6f679050602083016000808483855afa5050505050565b8280546200bf82906200c3b3565b90600052602060002090601f0160209004810192826200bfa657600085556200bff2565b82601f106200bfc157805160ff19168380011785556200bff2565b828001600101855582156200bff2579182015b828111156200bff15782518255916020019190600101906200bfd4565b5b5090506200c00191906200c26f565b5090565b8280548282559060005260206000209081019282156200c059579160200282015b828111156200c0585782518290805190602001906200c0479291906200bf74565b50916020019190600101906200c026565b5b5090506200c06891906200c28e565b5090565b8280548282559060005260206000209081019282156200c0c0579160200282015b828111156200c0bf5782518290805190602001906200c0ae9291906200bf74565b50916020019190600101906200c08d565b5b5090506200c0cf91906200c28e565b5090565b8280548282559060005260206000209081019282156200c127579160200282015b828111156200c1265782518290805190602001906200c1159291906200bf74565b50916020019190600101906200c0f4565b5b5090506200c13691906200c28e565b5090565b8280548282559060005260206000209081019282156200c18e579160200282015b828111156200c18d5782518290805190602001906200c17c9291906200bf74565b50916020019190600101906200c15b565b5b5090506200c19d91906200c28e565b5090565b8280548282559060005260206000209081019282156200c1f5579160200282015b828111156200c1f45782518290805190602001906200c1e39291906200bf74565b50916020019190600101906200c1c2565b5b5090506200c20491906200c28e565b5090565b8280548282559060005260206000209081019282156200c25c579160200282015b828111156200c25b5782518290805190602001906200c24a9291906200bf74565b50916020019190600101906200c229565b5b5090506200c26b91906200c28e565b5090565b5b808211156200c28a5760008160009055506001016200c270565b5090565b5b808211156200c2b257600081816200c2a891906200c2b6565b506001016200c28f565b5090565b5080546200c2c4906200c3b3565b6000825580601f106200c2d857506200c2f9565b601f0160209004906000526020600020908101906200c2f891906200c26f565b5b50565b60006200c309826200c361565b6200c31581856200c36c565b93506200c3278185602086016200c37d565b6200c332816200c418565b840191505092915050565b600060208201905081810360008301526200c35981846200c2fc565b905092915050565b600081519050919050565b600082825260208201905092915050565b60005b838110156200c39d5780820151818401526020810190506200c380565b838111156200c3ad576000848401525b50505050565b600060028204905060018216806200c3cc57607f821691505b602082108114156200c3e3576200c3e26200c3e9565b5b50919050565b7f4e487b7100000000000000000000000000000000000000000000000000000000600052602260045260246000fd5b6000601f19601f8301169050919050565b613df0806200c4396000396000f3fe608060405234801561001057600080fd5b506004361061012c5760003560e01c806386cc2737116100ad578063c466fdba11610071578063c466fdba14610379578063c87b56dd146103a9578063d0565db9146103d9578063de9d132f14610409578063e985e9c5146104135761012c565b806386cc2737146102c357806395d89b41146102f357806397eca3f814610311578063a22cb46514610341578063b88d4fde1461035d5761012c565b806323b872dd116100f457806323b872dd146101fb57806342842e0e146102175780635abd9eda146102335780636352211e1461026357806370a08231146102935761012c565b806301ffc9a71461013157806306fdde0314610161578063081812fc1461017f578063095ea7b3146101af57806311281f27146101cb575b600080fd5b61014b600480360381019061014691906128f7565b610443565b6040516101589190613666565b60405180910390f35b610169610525565b6040516101769190613681565b60405180910390f35b61019960048036038101906101949190612949565b6105b7565b6040516101a691906135d6565b60405180910390f35b6101c960048036038101906101c491906128bb565b61063c565b005b6101e560048036038101906101e09190612949565b610754565b6040516101f29190613681565b60405180910390f35b610215600480360381019061021091906127b5565b610872565b005b610231600480360381019061022c91906127b5565b6108d2565b005b61024d60048036038101906102489190612949565b6108f2565b60405161025a9190613681565b60405180910390f35b61027d60048036038101906102789190612949565b610a10565b60405161028a91906135d6565b60405180910390f35b6102ad60048036038101906102a89190612750565b610ac2565b6040516102ba91906138e1565b60405180910390f35b6102dd60048036038101906102d89190612949565b610b7a565b6040516102ea9190613681565b60405180910390f35b6102fb610c98565b6040516103089190613681565b60405180910390f35b61032b60048036038101906103269190612949565b610d2a565b6040516103389190613681565b60405180910390f35b61035b6004803603810190610356919061287f565b610e48565b005b61037760048036038101906103729190612804565b610fc9565b005b610393600480360381019061038e9190612949565b61102b565b6040516103a09190613681565b60405180910390f35b6103c360048036038101906103be9190612949565b611149565b6040516103d09190613681565b60405180910390f35b6103f360048036038101906103ee9190612949565b61129b565b6040516104009190613681565b60405180910390f35b6104116113b9565b005b61042d60048036038101906104289190612779565b6115d0565b60405161043a9190613666565b60405180910390f35b60007f80ac58cd000000000000000000000000000000000000000000000000000000007bffffffffffffffffffffffffffffffffffffffffffffffffffffffff1916827bffffffffffffffffffffffffffffffffffffffffffffffffffffffff1916148061050e57507f5b5e139f000000000000000000000000000000000000000000000000000000007bffffffffffffffffffffffffffffffffffffffffffffffffffffffff1916827bffffffffffffffffffffffffffffffffffffffffffffffffffffffff1916145b8061051e575061051d826116fd565b5b9050919050565b60606000805461053490613b80565b80601f016020809104026020016040519081016040528092919081815260200182805461056090613b80565b80156105ad5780601f10610582576101008083540402835291602001916105ad565b820191906000526020600020905b81548152906001019060200180831161059057829003601f168201915b5050505050905090565b60006105c282611767565b610601576040517f08c379a00000000000000000000000000000000000000000000000000000000081526004016105f890613841565b60405180910390fd5b6004600083815260200190815260200160002060009054906101000a900473ffffffffffffffffffffffffffffffffffffffff169050919050565b600061064782610a10565b90508073ffffffffffffffffffffffffffffffffffffffff168373ffffffffffffffffffffffffffffffffffffffff1614156106b8576040517f08c379a00000000000000000000000000000000000000000000000000000000081526004016106af906138a1565b60405180910390fd5b8073ffffffffffffffffffffffffffffffffffffffff166106d76117d3565b73ffffffffffffffffffffffffffffffffffffffff1614806107065750610705816107006117d3565b6115d0565b5b610745576040517f08c379a000000000000000000000000000000000000000000000000000000000815260040161073c90613781565b60405180910390fd5b61074f83836117db565b505050565b6060600061078861076484611894565b6040516020016107749190613592565b604051602081830303815290604052611a41565b9050600a805490508161079b9190613bfb565b9050600a81815481106107d7577f4e487b7100000000000000000000000000000000000000000000000000000000600052603260045260246000fd5b9060005260206000200180546107ec90613b80565b80601f016020809104026020016040519081016040528092919081815260200182805461081890613b80565b80156108655780601f1061083a57610100808354040283529160200191610865565b820191906000526020600020905b81548152906001019060200180831161084857829003601f168201915b5050505050915050919050565b61088361087d6117d3565b82611a74565b6108c2576040517f08c379a00000000000000000000000000000000000000000000000000000000081526004016108b9906138c1565b60405180910390fd5b6108cd838383611b52565b505050565b6108ed83838360405180602001604052806000815250610fc9565b505050565b6060600061092661090284611894565b60405160200161091291906135b4565b604051602081830303815290604052611a41565b9050600e80549050816109399190613bfb565b9050600e8181548110610975577f4e487b7100000000000000000000000000000000000000000000000000000000600052603260045260246000fd5b90600052602060002001805461098a90613b80565b80601f01602080910402602001604051908101604052809291908181526020018280546109b690613b80565b8015610a035780601f106109d857610100808354040283529160200191610a03565b820191906000526020600020905b8154815290600101906020018083116109e657829003601f168201915b5050505050915050919050565b6000806002600084815260200190815260200160002060009054906101000a900473ffffffffffffffffffffffffffffffffffffffff169050600073ffffffffffffffffffffffffffffffffffffffff168173ffffffffffffffffffffffffffffffffffffffff161415610ab9576040517f08c379a0000000000000000000000000000000000000000000000000000000008152600401610ab0906137c1565b60405180910390fd5b80915050919050565b60008073ffffffffffffffffffffffffffffffffffffffff168273ffffffffffffffffffffffffffffffffffffffff161415610b33576040517f08c379a0000000000000000000000000000000000000000000000000000000008152600401610b2a906137a1565b60405180910390fd5b600360008373ffffffffffffffffffffffffffffffffffffffff1673ffffffffffffffffffffffffffffffffffffffff168152602001908152602001600020549050919050565b60606000610bae610b8a84611894565b604051602001610b9a91906134e7565b604051602081830303815290604052611a41565b9050600d8054905081610bc19190613bfb565b9050600d8181548110610bfd577f4e487b7100000000000000000000000000000000000000000000000000000000600052603260045260246000fd5b906000526020600020018054610c1290613b80565b80601f0160208091040260200160405190810160405280929190818152602001828054610c3e90613b80565b8015610c8b5780601f10610c6057610100808354040283529160200191610c8b565b820191906000526020600020905b815481529060010190602001808311610c6e57829003601f168201915b5050505050915050919050565b606060018054610ca790613b80565b80601f0160208091040260200160405190810160405280929190818152602001828054610cd390613b80565b8015610d205780601f10610cf557610100808354040283529160200191610d20565b820191906000526020600020905b815481529060010190602001808311610d0357829003601f168201915b5050505050905090565b60606000610d5e610d3a84611894565b604051602001610d4a9190613570565b604051602081830303815290604052611a41565b9050600c8054905081610d719190613bfb565b9050600c8181548110610dad577f4e487b7100000000000000000000000000000000000000000000000000000000600052603260045260246000fd5b906000526020600020018054610dc290613b80565b80601f0160208091040260200160405190810160405280929190818152602001828054610dee90613b80565b8015610e3b5780601f10610e1057610100808354040283529160200191610e3b565b820191906000526020600020905b815481529060010190602001808311610e1e57829003601f168201915b5050505050915050919050565b610e506117d3565b73ffffffffffffffffffffffffffffffffffffffff168273ffffffffffffffffffffffffffffffffffffffff161415610ebe576040517f08c379a0000000000000000000000000000000000000000000000000000000008152600401610eb590613741565b60405180910390fd5b8060056000610ecb6117d3565b73ffffffffffffffffffffffffffffffffffffffff1673ffffffffffffffffffffffffffffffffffffffff16815260200190815260200160002060008473ffffffffffffffffffffffffffffffffffffffff1673ffffffffffffffffffffffffffffffffffffffff16815260200190815260200160002060006101000a81548160ff0219169083151502179055508173ffffffffffffffffffffffffffffffffffffffff16610f786117d3565b73ffffffffffffffffffffffffffffffffffffffff167f17307eab39ab6107e8899845ad3d59bd9653f200f220920489ca2b5937696c3183604051610fbd9190613666565b60405180910390a35050565b610fda610fd46117d3565b83611a74565b611019576040517f08c379a0000000000000000000000000000000000000000000000000000000008152600401611010906138c1565b60405180910390fd5b61102584848484611dae565b50505050565b6060600061105f61103b84611894565b60405160200161104b91906134c5565b604051602081830303815290604052611a41565b9050600b80549050816110729190613bfb565b9050600b81815481106110ae577f4e487b7100000000000000000000000000000000000000000000000000000000600052603260045260246000fd5b9060005260206000200180546110c390613b80565b80601f01602080910402602001604051908101604052809291908181526020018280546110ef90613b80565b801561113c5780601f106111115761010080835404028352916020019161113c565b820191906000526020600020905b81548152906001019060200180831161111f57829003601f168201915b5050505050915050919050565b606061115482611767565b611193576040517f08c379a000000000000000000000000000000000000000000000000000000000815260040161118a90613821565b60405180910390fd5b60006006600084815260200190815260200160002080546111b390613b80565b80601f01602080910402602001604051908101604052809291908181526020018280546111df90613b80565b801561122c5780601f106112015761010080835404028352916020019161122c565b820191906000526020600020905b81548152906001019060200180831161120f57829003601f168201915b50505050509050600061123d611e0a565b9050600081511415611253578192505050611296565b6000825111156112885780826040516020016112709291906133f8565b60405160208183030381529060405292505050611296565b61129184611e21565b925050505b919050565b606060006112cf6112ab84611894565b6040516020016112bb91906134a3565b604051602081830303815290604052611a41565b9050600980549050816112e29190613bfb565b90506009818154811061131e577f4e487b7100000000000000000000000000000000000000000000000000000000600052603260045260246000fd5b90600052602060002001805461133390613b80565b80601f016020809104026020016040519081016040528092919081815260200182805461135f90613b80565b80156113ac5780601f10611381576101008083540402835291602001916113ac565b820191906000526020600020905b81548152906001019060200180831161138f57829003601f168201915b5050505050915050919050565b60006113c56007611ec8565b905060006113d28261129b565b905060006113df83610754565b905060006113ec8461102b565b905060006113f985610d2a565b9050600061140686610b7a565b90506000611413876108f2565b905060008686868686866040516020016114329695949392919061341c565b60405160208183030381529060405290506000600882604051602001611459929190613474565b6040516020818303038152906040529050600061149e8361147984611ed6565b60405160200161148a929190613509565b604051602081830303815290604052611ed6565b90506000816040516020016114b3919061354e565b60405160208183030381529060405290506115026040518060400160405280601581526020017f0a2d2d2d2d2d2d2d2d2d2d2d2d2d2d2d2d2d2d2d2d0000000000000000000000815250611664565b61150b81611664565b6115496040518060400160405280601581526020017f2d2d2d2d2d2d2d2d2d2d2d2d2d2d2d2d2d2d2d2d0a0000000000000000000000815250611664565b611553338c612094565b61155d8b826120b2565b6115676007612126565b61158a604051806060016040528060258152602001613d56602591398c3361213c565b7febb98688741ffa4c7589bf325de30cf7becb63de567842e1ccdb6cb949fdc82c338c6040516115bb92919061363d565b60405180910390a15050505050505050505050565b6000600560008473ffffffffffffffffffffffffffffffffffffffff1673ffffffffffffffffffffffffffffffffffffffff16815260200190815260200160002060008373ffffffffffffffffffffffffffffffffffffffff1673ffffffffffffffffffffffffffffffffffffffff16815260200190815260200160002060009054906101000a900460ff16905092915050565b6116fa816040516024016116789190613681565b6040516020818303038152906040527f41304fac000000000000000000000000000000000000000000000000000000007bffffffffffffffffffffffffffffffffffffffffffffffffffffffff19166020820180517bffffffffffffffffffffffffffffffffffffffffffffffffffffffff83818316178352505050506121db565b50565b60007f01ffc9a7000000000000000000000000000000000000000000000000000000007bffffffffffffffffffffffffffffffffffffffffffffffffffffffff1916827bffffffffffffffffffffffffffffffffffffffffffffffffffffffff1916149050919050565b60008073ffffffffffffffffffffffffffffffffffffffff166002600084815260200190815260200160002060009054906101000a900473ffffffffffffffffffffffffffffffffffffffff1673ffffffffffffffffffffffffffffffffffffffff1614159050919050565b600033905090565b816004600083815260200190815260200160002060006101000a81548173ffffffffffffffffffffffffffffffffffffffff021916908373ffffffffffffffffffffffffffffffffffffffff160217905550808273ffffffffffffffffffffffffffffffffffffffff1661184e83610a10565b73ffffffffffffffffffffffffffffffffffffffff167f8c5be1e5ebec7d5bd14f71427d1e84f3dd0314c0f7b2291e5b200ac8c7c3b92560405160405180910390a45050565b606060008214156118dc576040518060400160405280600181526020017f30000000000000000000000000000000000000000000000000000000000000008152509050611a3c565b600082905060005b6000821461190e5780806118f790613bb2565b915050600a826119079190613a0b565b91506118e4565b60008167ffffffffffffffff811115611950577f4e487b7100000000000000000000000000000000000000000000000000000000600052604160045260246000fd5b6040519080825280601f01601f1916602001820160405280156119825781602001600182028036833780820191505090505b5090505b60008514611a355760018261199b9190613a96565b9150600a856119aa9190613bfb565b60306119b691906139b5565b60f81b8183815181106119f2577f4e487b7100000000000000000000000000000000000000000000000000000000600052603260045260246000fd5b60200101907effffffffffffffffffffffffffffffffffffffffffffffffffffffffffffff1916908160001a905350600a85611a2e9190613a0b565b9450611986565b8093505050505b919050565b600081604051602001611a5491906133e1565b6040516020818303038152906040528051906020012060001c9050919050565b6000611a7f82611767565b611abe576040517f08c379a0000000000000000000000000000000000000000000000000000000008152600401611ab590613761565b60405180910390fd5b6000611ac983610a10565b90508073ffffffffffffffffffffffffffffffffffffffff168473ffffffffffffffffffffffffffffffffffffffff161480611b3857508373ffffffffffffffffffffffffffffffffffffffff16611b20846105b7565b73ffffffffffffffffffffffffffffffffffffffff16145b80611b495750611b4881856115d0565b5b91505092915050565b8273ffffffffffffffffffffffffffffffffffffffff16611b7282610a10565b73ffffffffffffffffffffffffffffffffffffffff1614611bc8576040517f08c379a0000000000000000000000000000000000000000000000000000000008152600401611bbf90613861565b60405180910390fd5b600073ffffffffffffffffffffffffffffffffffffffff168273ffffffffffffffffffffffffffffffffffffffff161415611c38576040517f08c379a0000000000000000000000000000000000000000000000000000000008152600401611c2f90613721565b60405180910390fd5b611c43838383612204565b611c4e6000826117db565b6001600360008573ffffffffffffffffffffffffffffffffffffffff1673ffffffffffffffffffffffffffffffffffffffff1681526020019081526020016000206000828254611c9e9190613a96565b925050819055506001600360008473ffffffffffffffffffffffffffffffffffffffff1673ffffffffffffffffffffffffffffffffffffffff1681526020019081526020016000206000828254611cf591906139b5565b92505081905550816002600083815260200190815260200160002060006101000a81548173ffffffffffffffffffffffffffffffffffffffff021916908373ffffffffffffffffffffffffffffffffffffffff160217905550808273ffffffffffffffffffffffffffffffffffffffff168473ffffffffffffffffffffffffffffffffffffffff167fddf252ad1be2c89b69c2b068fc378daa952ba7f163c4a11628f55a4df523b3ef60405160405180910390a4505050565b611db9848484611b52565b611dc584848484612209565b611e04576040517f08c379a0000000000000000000000000000000000000000000000000000000008152600401611dfb906136e1565b60405180910390fd5b50505050565b606060405180602001604052806000815250905090565b6060611e2c82611767565b611e6b576040517f08c379a0000000000000000000000000000000000000000000000000000000008152600401611e6290613881565b60405180910390fd5b6000611e75611e0a565b90506000815111611e955760405180602001604052806000815250611ec0565b80611e9f84611894565b604051602001611eb09291906133f8565b6040516020818303038152906040525b915050919050565b600081600001549050919050565b60606000825190506000811415611eff576040518060200160405280600081525091505061208f565b60006003600283611f1091906139b5565b611f1a9190613a0b565b6004611f269190613a3c565b90506000602082611f3791906139b5565b67ffffffffffffffff811115611f76577f4e487b7100000000000000000000000000000000000000000000000000000000600052604160045260246000fd5b6040519080825280601f01601f191660200182016040528015611fa85781602001600182028036833780820191505090505b5090506000604051806060016040528060408152602001613d7b604091399050600181016020830160005b8681101561204c5760038101905062ffffff818a015116603f8160121c168401518060081b905060ff603f83600c1c1686015116810190508060081b905060ff603f8360061c1686015116810190508060081b905060ff603f831686015116810190508060e01b90508084526004840193505050611fd3565b506003860660018114612066576002811461207657612081565b613d3d60f01b6002830352612081565b603d60f81b60018303525b508484525050819450505050505b919050565b6120ae8282604051806020016040528060008152506123a0565b5050565b6120bb82611767565b6120fa576040517f08c379a00000000000000000000000000000000000000000000000000000000081526004016120f1906137e1565b60405180910390fd5b806006600084815260200190815260200160002090805190602001906121219291906125dc565b505050565b6001816000016000828254019250508190555050565b6121d6838383604051602401612154939291906136a3565b6040516020818303038152906040527fe3849f79000000000000000000000000000000000000000000000000000000007bffffffffffffffffffffffffffffffffffffffffffffffffffffffff19166020820180517bffffffffffffffffffffffffffffffffffffffffffffffffffffffff83818316178352505050506121db565b505050565b60008151905060006a636f6e736f6c652e6c6f679050602083016000808483855afa5050505050565b505050565b600061222a8473ffffffffffffffffffffffffffffffffffffffff166123fb565b15612393578373ffffffffffffffffffffffffffffffffffffffff1663150b7a026122536117d3565b8786866040518563ffffffff1660e01b815260040161227594939291906135f1565b602060405180830381600087803b15801561228f57600080fd5b505af19250505080156122c057506040513d601f19601f820116820180604052508101906122bd9190612920565b60015b612343573d80600081146122f0576040519150601f19603f3d011682016040523d82523d6000602084013e6122f5565b606091505b5060008151141561233b576040517f08c379a0000000000000000000000000000000000000000000000000000000008152600401612332906136e1565b60405180910390fd5b805181602001fd5b63150b7a0260e01b7bffffffffffffffffffffffffffffffffffffffffffffffffffffffff1916817bffffffffffffffffffffffffffffffffffffffffffffffffffffffff191614915050612398565b600190505b949350505050565b6123aa838361240e565b6123b76000848484612209565b6123f6576040517f08c379a00000000000000000000000000000000000000000000000000000000081526004016123ed906136e1565b60405180910390fd5b505050565b600080823b905060008111915050919050565b600073ffffffffffffffffffffffffffffffffffffffff168273ffffffffffffffffffffffffffffffffffffffff16141561247e576040517f08c379a000000000000000000000000000000000000000000000000000000000815260040161247590613801565b60405180910390fd5b61248781611767565b156124c7576040517f08c379a00000000000000000000000000000000000000000000000000000000081526004016124be90613701565b60405180910390fd5b6124d360008383612204565b6001600360008473ffffffffffffffffffffffffffffffffffffffff1673ffffffffffffffffffffffffffffffffffffffff168152602001908152602001600020600082825461252391906139b5565b92505081905550816002600083815260200190815260200160002060006101000a81548173ffffffffffffffffffffffffffffffffffffffff021916908373ffffffffffffffffffffffffffffffffffffffff160217905550808273ffffffffffffffffffffffffffffffffffffffff16600073ffffffffffffffffffffffffffffffffffffffff167fddf252ad1be2c89b69c2b068fc378daa952ba7f163c4a11628f55a4df523b3ef60405160405180910390a45050565b8280546125e890613b80565b90600052602060002090601f01602090048101928261260a5760008555612651565b82601f1061262357805160ff1916838001178555612651565b82800160010185558215612651579182015b82811115612650578251825591602001919060010190612635565b5b50905061265e9190612662565b5090565b5b8082111561267b576000816000905550600101612663565b5090565b600061269261268d8461392d565b6138fc565b9050828152602081018484840111156126aa57600080fd5b6126b5848285613b3e565b509392505050565b6000813590506126cc81613cf9565b92915050565b6000813590506126e181613d10565b92915050565b6000813590506126f681613d27565b92915050565b60008151905061270b81613d27565b92915050565b600082601f83011261272257600080fd5b813561273284826020860161267f565b91505092915050565b60008135905061274a81613d3e565b92915050565b60006020828403121561276257600080fd5b6000612770848285016126bd565b91505092915050565b6000806040838503121561278c57600080fd5b600061279a858286016126bd565b92505060206127ab858286016126bd565b9150509250929050565b6000806000606084860312156127ca57600080fd5b60006127d8868287016126bd565b93505060206127e9868287016126bd565b92505060406127fa8682870161273b565b9150509250925092565b6000806000806080858703121561281a57600080fd5b6000612828878288016126bd565b9450506020612839878288016126bd565b935050604061284a8782880161273b565b925050606085013567ffffffffffffffff81111561286757600080fd5b61287387828801612711565b91505092959194509250565b6000806040838503121561289257600080fd5b60006128a0858286016126bd565b92505060206128b1858286016126d2565b9150509250929050565b600080604083850312156128ce57600080fd5b60006128dc858286016126bd565b92505060206128ed8582860161273b565b9150509250929050565b60006020828403121561290957600080fd5b6000612917848285016126e7565b91505092915050565b60006020828403121561293257600080fd5b6000612940848285016126fc565b91505092915050565b60006020828403121561295b57600080fd5b60006129698482850161273b565b91505092915050565b61297b81613aca565b82525050565b61298a81613adc565b82525050565b600061299b82613972565b6129a58185613988565b93506129b5818560208601613b4d565b6129be81613ce8565b840191505092915050565b60006129d48261397d565b6129de8185613999565b93506129ee818560208601613b4d565b6129f781613ce8565b840191505092915050565b6000612a0d8261397d565b612a1781856139aa565b9350612a27818560208601613b4d565b80840191505092915050565b60008154612a4081613b80565b612a4a81866139aa565b94506001821660008114612a655760018114612a7657612aa9565b60ff19831686528186019350612aa9565b612a7f8561395d565b60005b83811015612aa157815481890152600182019150602081019050612a82565b838801955050505b50505092915050565b6000612abf600b836139aa565b91507f46495253545f454d4f4a490000000000000000000000000000000000000000006000830152600b82019050919050565b6000612aff603283613999565b91507f4552433732313a207472616e7366657220746f206e6f6e20455243373231526560008301527f63656976657220696d706c656d656e74657200000000000000000000000000006020830152604082019050919050565b6000612b65601c83613999565b91507f4552433732313a20746f6b656e20616c7265616479206d696e746564000000006000830152602082019050919050565b6000612ba5602483613999565b91507f4552433732313a207472616e7366657220746f20746865207a65726f2061646460008301527f72657373000000000000000000000000000000000000000000000000000000006020830152604082019050919050565b6000612c0b601983613999565b91507f4552433732313a20617070726f766520746f2063616c6c6572000000000000006000830152602082019050919050565b6000612c4b602c83613999565b91507f4552433732313a206f70657261746f7220717565727920666f72206e6f6e657860008301527f697374656e7420746f6b656e00000000000000000000000000000000000000006020830152604082019050919050565b6000612cb1600b836139aa565b91507f54484952445f454d4f4a490000000000000000000000000000000000000000006000830152600b82019050919050565b6000612cf1600d836139aa565b91507f3c2f746578743e3c2f7376673e000000000000000000000000000000000000006000830152600d82019050919050565b6000612d31603883613999565b91507f4552433732313a20617070726f76652063616c6c6572206973206e6f74206f7760008301527f6e6572206e6f7220617070726f76656420666f7220616c6c00000000000000006020830152604082019050919050565b6000612d97602a83613999565b91507f4552433732313a2062616c616e636520717565727920666f7220746865207a6560008301527f726f2061646472657373000000000000000000000000000000000000000000006020830152604082019050919050565b6000612dfd602983613999565b91507f4552433732313a206f776e657220717565727920666f72206e6f6e657869737460008301527f656e7420746f6b656e00000000000000000000000000000000000000000000006020830152604082019050919050565b6000612e63602e83613999565b91507f45524337323155524953746f726167653a2055524920736574206f66206e6f6e60008301527f6578697374656e7420746f6b656e0000000000000000000000000000000000006020830152604082019050919050565b6000612ec96002836139aa565b91507f227d0000000000000000000000000000000000000000000000000000000000006000830152600282019050919050565b6000612f09602083613999565b91507f4552433732313a206d696e7420746f20746865207a65726f20616464726573736000830152602082019050919050565b6000612f49603183613999565b91507f45524337323155524953746f726167653a2055524920717565727920666f722060008301527f6e6f6e6578697374656e7420746f6b656e0000000000000000000000000000006020830152604082019050919050565b6000612faf600b836139aa565b91507f46494654485f454d4f4a490000000000000000000000000000000000000000006000830152600b82019050919050565b6000612fef602c83613999565b91507f4552433732313a20617070726f76656420717565727920666f72206e6f6e657860008301527f697374656e7420746f6b656e00000000000000000000000000000000000000006020830152604082019050919050565b6000613055602983613999565b91507f4552433732313a207472616e73666572206f6620746f6b656e2074686174206960008301527f73206e6f74206f776e00000000000000000000000000000000000000000000006020830152604082019050919050565b60006130bb602f83613999565b91507f4552433732314d657461646174613a2055524920717565727920666f72206e6f60008301527f6e6578697374656e7420746f6b656e00000000000000000000000000000000006020830152604082019050919050565b6000613121600a836139aa565b91507f7b226e616d65223a2022000000000000000000000000000000000000000000006000830152600a82019050919050565b6000613161602183613999565b91507f4552433732313a20617070726f76616c20746f2063757272656e74206f776e6560008301527f72000000000000000000000000000000000000000000000000000000000000006020830152604082019050919050565b60006131c7601d836139aa565b91507f646174613a6170706c69636174696f6e2f6a736f6e3b6261736536342c0000006000830152601d82019050919050565b6000613207600c836139aa565b91507f464f555254485f454d4f4a4900000000000000000000000000000000000000006000830152600c82019050919050565b6000613247603183613999565b91507f4552433732313a207472616e736665722063616c6c6572206973206e6f74206f60008301527f776e6572206e6f7220617070726f7665640000000000000000000000000000006020830152604082019050919050565b60006132ad600c836139aa565b91507f5345434f4e445f454d4f4a4900000000000000000000000000000000000000006000830152600c82019050919050565b60006132ed600b836139aa565b91507f53495854485f454d4f4a490000000000000000000000000000000000000000006000830152600b82019050919050565b600061332d606c836139aa565b91507f222c20226465736372697074696f6e223a20224120686967686c79206163636c60008301527f61696d656420636f6c6c656374696f6e206f66203620656d6f6a69732073717560208301527f617265732e222c2022696d616765223a2022646174613a696d6167652f73766760408301527f2b786d6c3b6261736536342c00000000000000000000000000000000000000006060830152606c82019050919050565b6133db81613b34565b82525050565b60006133ed8284612a02565b915081905092915050565b60006134048285612a02565b91506134108284612a02565b91508190509392505050565b60006134288289612a02565b91506134348288612a02565b91506134408287612a02565b915061344c8286612a02565b91506134588285612a02565b91506134648284612a02565b9150819050979650505050505050565b60006134808285612a33565b915061348c8284612a02565b915061349782612ce4565b91508190509392505050565b60006134ae82612ab2565b91506134ba8284612a02565b915081905092915050565b60006134d082612ca4565b91506134dc8284612a02565b915081905092915050565b60006134f282612fa2565b91506134fe8284612a02565b915081905092915050565b600061351482613114565b91506135208285612a02565b915061352b82613320565b91506135378284612a02565b915061354282612ebc565b91508190509392505050565b6000613559826131ba565b91506135658284612a02565b915081905092915050565b600061357b826131fa565b91506135878284612a02565b915081905092915050565b600061359d826132a0565b91506135a98284612a02565b915081905092915050565b60006135bf826132e0565b91506135cb8284612a02565b915081905092915050565b60006020820190506135eb6000830184612972565b92915050565b60006080820190506136066000830187612972565b6136136020830186612972565b61362060408301856133d2565b81810360608301526136328184612990565b905095945050505050565b60006040820190506136526000830185612972565b61365f60208301846133d2565b9392505050565b600060208201905061367b6000830184612981565b92915050565b6000602082019050818103600083015261369b81846129c9565b905092915050565b600060608201905081810360008301526136bd81866129c9565b90506136cc60208301856133d2565b6136d96040830184612972565b949350505050565b600060208201905081810360008301526136fa81612af2565b9050919050565b6000602082019050818103600083015261371a81612b58565b9050919050565b6000602082019050818103600083015261373a81612b98565b9050919050565b6000602082019050818103600083015261375a81612bfe565b9050919050565b6000602082019050818103600083015261377a81612c3e565b9050919050565b6000602082019050818103600083015261379a81612d24565b9050919050565b600060208201905081810360008301526137ba81612d8a565b9050919050565b600060208201905081810360008301526137da81612df0565b9050919050565b600060208201905081810360008301526137fa81612e56565b9050919050565b6000602082019050818103600083015261381a81612efc565b9050919050565b6000602082019050818103600083015261383a81612f3c565b9050919050565b6000602082019050818103600083015261385a81612fe2565b9050919050565b6000602082019050818103600083015261387a81613048565b9050919050565b6000602082019050818103600083015261389a816130ae565b9050919050565b600060208201905081810360008301526138ba81613154565b9050919050565b600060208201905081810360008301526138da8161323a565b9050919050565b60006020820190506138f660008301846133d2565b92915050565b6000604051905081810181811067ffffffffffffffff8211171561392357613922613cb9565b5b8060405250919050565b600067ffffffffffffffff82111561394857613947613cb9565b5b601f19601f8301169050602081019050919050565b60008190508160005260206000209050919050565b600081519050919050565b600081519050919050565b600082825260208201905092915050565b600082825260208201905092915050565b600081905092915050565b60006139c082613b34565b91506139cb83613b34565b9250827fffffffffffffffffffffffffffffffffffffffffffffffffffffffffffffffff03821115613a00576139ff613c2c565b5b828201905092915050565b6000613a1682613b34565b9150613a2183613b34565b925082613a3157613a30613c5b565b5b828204905092915050565b6000613a4782613b34565b9150613a5283613b34565b9250817fffffffffffffffffffffffffffffffffffffffffffffffffffffffffffffffff0483118215151615613a8b57613a8a613c2c565b5b828202905092915050565b6000613aa182613b34565b9150613aac83613b34565b925082821015613abf57613abe613c2c565b5b828203905092915050565b6000613ad582613b14565b9050919050565b60008115159050919050565b60007fffffffff0000000000000000000000000000000000000000000000000000000082169050919050565b600073ffffffffffffffffffffffffffffffffffffffff82169050919050565b6000819050919050565b82818337600083830152505050565b60005b83811015613b6b578082015181840152602081019050613b50565b83811115613b7a576000848401525b50505050565b60006002820490506001821680613b9857607f821691505b60208210811415613bac57613bab613c8a565b5b50919050565b6000613bbd82613b34565b91507fffffffffffffffffffffffffffffffffffffffffffffffffffffffffffffffff821415613bf057613bef613c2c565b5b600182019050919050565b6000613c0682613b34565b9150613c1183613b34565b925082613c2157613c20613c5b565b5b828206905092915050565b7f4e487b7100000000000000000000000000000000000000000000000000000000600052601160045260246000fd5b7f4e487b7100000000000000000000000000000000000000000000000000000000600052601260045260246000fd5b7f4e487b7100000000000000000000000000000000000000000000000000000000600052602260045260246000fd5b7f4e487b7100000000000000000000000000000000000000000000000000000000600052604160045260246000fd5b6000601f19601f8301169050919050565b613d0281613aca565b8114613d0d57600080fd5b50565b613d1981613adc565b8114613d2457600080fd5b50565b613d3081613ae8565b8114613d3b57600080fd5b50565b613d4781613b34565b8114613d5257600080fd5b5056fe416e204e465420772f20494420257320686173206265656e206d696e74656420746f2025734142434445464748494a4b4c4d4e4f505152535455565758595a6162636465666768696a6b6c6d6e6f707172737475767778797a303132333435363738392b2fa26469706673582212205ef91ddec33f7c25d2aee20197d05344bbf9649497e5076288823ae27d4162f164736f6c634300080000333c73766720786d6c6e733d27687474703a2f2f7777772e77332e6f72672f323030302f73766727207072657365727665417370656374526174696f3d27784d696e594d696e206d656574272076696577426f783d273020302033353020333530273e3c7374796c653e2e62617365207b2066696c6c3a2077686974653b20666f6e742d66616d696c793a2073657269663b20666f6e742d73697a653a20333070783b207d3c2f7374796c653e3c726563742077696474683d273130302527206865696768743d2731303025272066696c6c3d272337374336353527202f3e3c7465787420783d273530252720793d273530252720636c6173733d27626173652720646f6d696e616e742d626173656c696e653d276d6964646c652720746578742d616e63686f723d276d6964646c65273e",
  "linkReferences": {},
  "deployedLinkReferences": {}
}