{
  "_format": "hh-sol-artifact-1",
  "contractName": "SixEmojisBoxNFT",
  "sourceName": "contracts/SixEmojisBoxNFT.sol",
  "abi": [
    {
      "inputs": [],
      "stateMutability": "nonpayable",
      "type": "constructor"
    },
    {
      "anonymous": false,
      "inputs": [
        {
          "indexed": true,
          "internalType": "address",
          "name": "owner",
          "type": "address"
        },
        {
          "indexed": true,
          "internalType": "address",
          "name": "approved",
          "type": "address"
        },
        {
          "indexed": true,
          "internalType": "uint256",
          "name": "tokenId",
          "type": "uint256"
        }
      ],
      "name": "Approval",
      "type": "event"
    },
    {
      "anonymous": false,
      "inputs": [
        {
          "indexed": true,
          "internalType": "address",
          "name": "owner",
          "type": "address"
        },
        {
          "indexed": true,
          "internalType": "address",
          "name": "operator",
          "type": "address"
        },
        {
          "indexed": false,
          "internalType": "bool",
          "name": "approved",
          "type": "bool"
        }
      ],
      "name": "ApprovalForAll",
      "type": "event"
    },
    {
      "anonymous": false,
      "inputs": [
        {
          "indexed": false,
          "internalType": "address",
          "name": "sender",
          "type": "address"
        },
        {
          "indexed": false,
          "internalType": "uint256",
          "name": "tokenId",
          "type": "uint256"
        }
      ],
      "name": "NewMake6EmojisBoxNFTMinted",
      "type": "event"
    },
    {
      "anonymous": false,
      "inputs": [
        {
          "indexed": true,
          "internalType": "address",
          "name": "from",
          "type": "address"
        },
        {
          "indexed": true,
          "internalType": "address",
          "name": "to",
          "type": "address"
        },
        {
          "indexed": true,
          "internalType": "uint256",
          "name": "tokenId",
          "type": "uint256"
        }
      ],
      "name": "Transfer",
      "type": "event"
    },
    {
      "inputs": [],
      "name": "MAX_MINT_LIMIT",
      "outputs": [
        {
          "internalType": "uint256",
          "name": "",
          "type": "uint256"
        }
      ],
      "stateMutability": "view",
      "type": "function"
    },
    {
      "inputs": [
        {
          "internalType": "address",
          "name": "",
          "type": "address"
        }
      ],
      "name": "_balanceOf",
      "outputs": [
        {
          "internalType": "uint256",
          "name": "",
          "type": "uint256"
        }
      ],
      "stateMutability": "view",
      "type": "function"
    },
    {
      "inputs": [
        {
          "internalType": "string",
          "name": "_uri",
          "type": "string"
        }
      ],
      "name": "_setBaseTokenURI",
      "outputs": [],
      "stateMutability": "nonpayable",
      "type": "function"
    },
    {
      "inputs": [
        {
          "internalType": "uint256",
          "name": "newItemId",
          "type": "uint256"
        }
      ],
      "name": "_tokenURI",
      "outputs": [
        {
          "internalType": "string",
          "name": "",
          "type": "string"
        }
      ],
      "stateMutability": "pure",
      "type": "function"
    },
    {
      "inputs": [
        {
          "internalType": "address",
          "name": "to",
          "type": "address"
        },
        {
          "internalType": "uint256",
          "name": "tokenId",
          "type": "uint256"
        }
      ],
      "name": "approve",
      "outputs": [],
      "stateMutability": "nonpayable",
      "type": "function"
    },
    {
      "inputs": [
        {
          "internalType": "address",
          "name": "owner",
          "type": "address"
        }
      ],
      "name": "balanceOf",
      "outputs": [
        {
          "internalType": "uint256",
          "name": "",
          "type": "uint256"
        }
      ],
      "stateMutability": "view",
      "type": "function"
    },
    {
      "inputs": [
        {
          "internalType": "uint256",
          "name": "tokenId",
          "type": "uint256"
        }
      ],
      "name": "getApproved",
      "outputs": [
        {
          "internalType": "address",
          "name": "",
          "type": "address"
        }
      ],
      "stateMutability": "view",
      "type": "function"
    },
    {
      "inputs": [],
      "name": "getTotalNFTMintedSoFar",
      "outputs": [
        {
          "internalType": "uint256",
          "name": "",
          "type": "uint256"
        }
      ],
      "stateMutability": "view",
      "type": "function"
    },
    {
      "inputs": [],
      "name": "getUserNFTMintedSoFar",
      "outputs": [
        {
          "internalType": "uint256",
          "name": "",
          "type": "uint256"
        }
      ],
      "stateMutability": "view",
      "type": "function"
    },
    {
      "inputs": [
        {
          "internalType": "address",
          "name": "owner",
          "type": "address"
        },
        {
          "internalType": "address",
          "name": "operator",
          "type": "address"
        }
      ],
      "name": "isApprovedForAll",
      "outputs": [
        {
          "internalType": "bool",
          "name": "",
          "type": "bool"
        }
      ],
      "stateMutability": "view",
      "type": "function"
    },
    {
      "inputs": [],
      "name": "make6EmojisBoxNFT",
      "outputs": [],
      "stateMutability": "nonpayable",
      "type": "function"
    },
    {
      "inputs": [],
      "name": "name",
      "outputs": [
        {
          "internalType": "string",
          "name": "",
          "type": "string"
        }
      ],
      "stateMutability": "view",
      "type": "function"
    },
    {
      "inputs": [],
      "name": "owner",
      "outputs": [
        {
          "internalType": "address",
          "name": "",
          "type": "address"
        }
      ],
      "stateMutability": "view",
      "type": "function"
    },
    {
      "inputs": [
        {
          "internalType": "uint256",
          "name": "tokenId",
          "type": "uint256"
        }
      ],
      "name": "ownerOf",
      "outputs": [
        {
          "internalType": "address",
          "name": "",
          "type": "address"
        }
      ],
      "stateMutability": "view",
      "type": "function"
    },
    {
      "inputs": [
        {
          "internalType": "address",
          "name": "from",
          "type": "address"
        },
        {
          "internalType": "address",
          "name": "to",
          "type": "address"
        },
        {
          "internalType": "uint256",
          "name": "tokenId",
          "type": "uint256"
        }
      ],
      "name": "safeTransferFrom",
      "outputs": [],
      "stateMutability": "nonpayable",
      "type": "function"
    },
    {
      "inputs": [
        {
          "internalType": "address",
          "name": "from",
          "type": "address"
        },
        {
          "internalType": "address",
          "name": "to",
          "type": "address"
        },
        {
          "internalType": "uint256",
          "name": "tokenId",
          "type": "uint256"
        },
        {
          "internalType": "bytes",
          "name": "_data",
          "type": "bytes"
        }
      ],
      "name": "safeTransferFrom",
      "outputs": [],
      "stateMutability": "nonpayable",
      "type": "function"
    },
    {
      "inputs": [
        {
          "internalType": "address",
          "name": "operator",
          "type": "address"
        },
        {
          "internalType": "bool",
          "name": "approved",
          "type": "bool"
        }
      ],
      "name": "setApprovalForAll",
      "outputs": [],
      "stateMutability": "nonpayable",
      "type": "function"
    },
    {
      "inputs": [
        {
          "internalType": "bytes4",
          "name": "interfaceId",
          "type": "bytes4"
        }
      ],
      "name": "supportsInterface",
      "outputs": [
        {
          "internalType": "bool",
          "name": "",
          "type": "bool"
        }
      ],
      "stateMutability": "view",
      "type": "function"
    },
    {
      "inputs": [],
      "name": "symbol",
      "outputs": [
        {
          "internalType": "string",
          "name": "",
          "type": "string"
        }
      ],
      "stateMutability": "view",
      "type": "function"
    },
    {
      "inputs": [
        {
          "internalType": "uint256",
          "name": "tokenId",
          "type": "uint256"
        }
      ],
      "name": "tokenURI",
      "outputs": [
        {
          "internalType": "string",
          "name": "",
          "type": "string"
        }
      ],
      "stateMutability": "view",
      "type": "function"
    },
    {
      "inputs": [
        {
          "internalType": "address",
          "name": "from",
          "type": "address"
        },
        {
          "internalType": "address",
          "name": "to",
          "type": "address"
        },
        {
          "internalType": "uint256",
          "name": "tokenId",
          "type": "uint256"
        }
      ],
      "name": "transferFrom",
      "outputs": [],
      "stateMutability": "nonpayable",
      "type": "function"
    }
  ],
  "bytecode": "0x60806040526103e76009553480156200001757600080fd5b506040518060400160405280600f81526020017f536978456d6f6a6973426f784e465400000000000000000000000000000000008152506040518060400160405280600681526020017f535155415245000000000000000000000000000000000000000000000000000081525081600090805190602001906200009c929190620000ff565b508060019080519060200190620000b5929190620000ff565b50505033600a60006101000a81548173ffffffffffffffffffffffffffffffffffffffff021916908373ffffffffffffffffffffffffffffffffffffffff16021790555062000214565b8280546200010d90620001af565b90600052602060002090601f0160209004810192826200013157600085556200017d565b82601f106200014c57805160ff19168380011785556200017d565b828001600101855582156200017d579182015b828111156200017c5782518255916020019190600101906200015f565b5b5090506200018c919062000190565b5090565b5b80821115620001ab57600081600090555060010162000191565b5090565b60006002820490506001821680620001c857607f821691505b60208210811415620001df57620001de620001e5565b5b50919050565b7f4e487b7100000000000000000000000000000000000000000000000000000000600052602260045260246000fd5b615f3280620002246000396000f3fe608060405234801561001057600080fd5b50600436106101375760003560e01c80637f59230f116100b8578063b253c4411161007c578063b253c4411461034e578063b88d4fde14610358578063c87b56dd14610374578063cca3e832146103a4578063d554ae5a146103d4578063e985e9c5146103f257610137565b80637f59230f146102a85780638d17e712146102c65780638da5cb5b146102f657806395d89b4114610314578063a22cb4651461033257610137565b806342842e0e116100ff57806342842e0e146101f257806359f4a51e1461020e5780636352211e1461022c57806370a082311461025c5780637d4aafb41461028c57610137565b806301ffc9a71461013c57806306fdde031461016c578063081812fc1461018a578063095ea7b3146101ba57806323b872dd146101d6575b600080fd5b61015660048036038101906101519190614991565b610422565b604051610163919061561c565b60405180910390f35b610174610504565b6040516101819190615637565b60405180910390f35b6101a4600480360381019061019f9190614a24565b610596565b6040516101b1919061558c565b60405180910390f35b6101d460048036038101906101cf9190614955565b61061b565b005b6101f060048036038101906101eb919061484f565b610733565b005b61020c6004803603810190610207919061484f565b610793565b005b6102166107b3565b60405161022391906158d7565b60405180910390f35b61024660048036038101906102419190614a24565b6107c4565b604051610253919061558c565b60405180910390f35b610276600480360381019061027191906147ea565b610876565b60405161028391906158d7565b60405180910390f35b6102a660048036038101906102a191906149e3565b61092e565b005b6102b06109d8565b6040516102bd91906158d7565b60405180910390f35b6102e060048036038101906102db9190614a24565b6109de565b6040516102ed9190615637565b60405180910390f35b6102fe610a9a565b60405161030b919061558c565b60405180910390f35b61031c610ac0565b6040516103299190615637565b60405180910390f35b61034c60048036038101906103479190614919565b610b52565b005b610356610cd3565b005b610372600480360381019061036d919061489e565b610e63565b005b61038e60048036038101906103899190614a24565b610ec5565b60405161039b9190615637565b60405180910390f35b6103be60048036038101906103b991906147ea565b611017565b6040516103cb91906158d7565b60405180910390f35b6103dc61102f565b6040516103e991906158d7565b60405180910390f35b61040c60048036038101906104079190614813565b611076565b604051610419919061561c565b60405180910390f35b60007f80ac58cd000000000000000000000000000000000000000000000000000000007bffffffffffffffffffffffffffffffffffffffffffffffffffffffff1916827bffffffffffffffffffffffffffffffffffffffffffffffffffffffff191614806104ed57507f5b5e139f000000000000000000000000000000000000000000000000000000007bffffffffffffffffffffffffffffffffffffffffffffffffffffffff1916827bffffffffffffffffffffffffffffffffffffffffffffffffffffffff1916145b806104fd57506104fc8261110a565b5b9050919050565b60606000805461051390615b91565b80601f016020809104026020016040519081016040528092919081815260200182805461053f90615b91565b801561058c5780601f106105615761010080835404028352916020019161058c565b820191906000526020600020905b81548152906001019060200180831161056f57829003601f168201915b5050505050905090565b60006105a182611174565b6105e0576040517f08c379a00000000000000000000000000000000000000000000000000000000081526004016105d7906157f7565b60405180910390fd5b6004600083815260200190815260200160002060009054906101000a900473ffffffffffffffffffffffffffffffffffffffff169050919050565b6000610626826107c4565b90508073ffffffffffffffffffffffffffffffffffffffff168373ffffffffffffffffffffffffffffffffffffffff161415610697576040517f08c379a000000000000000000000000000000000000000000000000000000000815260040161068e90615857565b60405180910390fd5b8073ffffffffffffffffffffffffffffffffffffffff166106b66111e0565b73ffffffffffffffffffffffffffffffffffffffff1614806106e557506106e4816106df6111e0565b611076565b5b610724576040517f08c379a000000000000000000000000000000000000000000000000000000000815260040161071b90615737565b60405180910390fd5b61072e83836111e8565b505050565b61074461073e6111e0565b826112a1565b610783576040517f08c379a000000000000000000000000000000000000000000000000000000000815260040161077a90615877565b60405180910390fd5b61078e83838361137f565b505050565b6107ae83838360405180602001604052806000815250610e63565b505050565b60006107bf60076115db565b905090565b6000806002600084815260200190815260200160002060009054906101000a900473ffffffffffffffffffffffffffffffffffffffff169050600073ffffffffffffffffffffffffffffffffffffffff168173ffffffffffffffffffffffffffffffffffffffff16141561086d576040517f08c379a000000000000000000000000000000000000000000000000000000000815260040161086490615777565b60405180910390fd5b80915050919050565b60008073ffffffffffffffffffffffffffffffffffffffff168273ffffffffffffffffffffffffffffffffffffffff1614156108e7576040517f08c379a00000000000000000000000000000000000000000000000000000000081526004016108de90615757565b60405180910390fd5b600360008373ffffffffffffffffffffffffffffffffffffffff1673ffffffffffffffffffffffffffffffffffffffff168152602001908152602001600020549050919050565b600a60009054906101000a900473ffffffffffffffffffffffffffffffffffffffff1673ffffffffffffffffffffffffffffffffffffffff163373ffffffffffffffffffffffffffffffffffffffff16146109be576040517f08c379a00000000000000000000000000000000000000000000000000000000081526004016109b5906158b7565b60405180910390fd5b80600890805190602001906109d492919061460e565b5050565b60095481565b606060006040518061016001604052806101318152602001615dcc610131913990506000610a0b846115e9565b905060008282604051602001610a22929190615490565b60405160208183030381529060405290506000610a6783610a428461395f565b604051602001610a53929190615503565b60405160208183030381529060405261395f565b9050600081604051602001610a7c919061556a565b60405160208183030381529060405290508095505050505050919050565b600a60009054906101000a900473ffffffffffffffffffffffffffffffffffffffff1681565b606060018054610acf90615b91565b80601f0160208091040260200160405190810160405280929190818152602001828054610afb90615b91565b8015610b485780601f10610b1d57610100808354040283529160200191610b48565b820191906000526020600020905b815481529060010190602001808311610b2b57829003601f168201915b5050505050905090565b610b5a6111e0565b73ffffffffffffffffffffffffffffffffffffffff168273ffffffffffffffffffffffffffffffffffffffff161415610bc8576040517f08c379a0000000000000000000000000000000000000000000000000000000008152600401610bbf906156f7565b60405180910390fd5b8060056000610bd56111e0565b73ffffffffffffffffffffffffffffffffffffffff1673ffffffffffffffffffffffffffffffffffffffff16815260200190815260200160002060008473ffffffffffffffffffffffffffffffffffffffff1673ffffffffffffffffffffffffffffffffffffffff16815260200190815260200160002060006101000a81548160ff0219169083151502179055508173ffffffffffffffffffffffffffffffffffffffff16610c826111e0565b73ffffffffffffffffffffffffffffffffffffffff167f17307eab39ab6107e8899845ad3d59bd9653f200f220920489ca2b5937696c3183604051610cc7919061561c565b60405180910390a35050565b6000610cdf60076115db565b9050806009541015610d26576040517f08c379a0000000000000000000000000000000000000000000000000000000008152600401610d1d90615897565b60405180910390fd5b6000610d31826109de565b9050610d3c81613b1d565b610d463383613bb6565b610d508282613bd4565b610d5a6007613c48565b610d7d604051806060016040528060258152602001615d67602591398333613c5e565b33600b600084815260200190815260200160002060006101000a81548173ffffffffffffffffffffffffffffffffffffffff021916908373ffffffffffffffffffffffffffffffffffffffff1602179055506001600c60003373ffffffffffffffffffffffffffffffffffffffff1673ffffffffffffffffffffffffffffffffffffffff1681526020019081526020016000206000828254610e1f91906159c6565b925050819055507fb78ccc9cec933b33d678c7c84d86f00633c7c7b6cb9f887bf845bf2c3463848e3383604051610e579291906155f3565b60405180910390a15050565b610e74610e6e6111e0565b836112a1565b610eb3576040517f08c379a0000000000000000000000000000000000000000000000000000000008152600401610eaa90615877565b60405180910390fd5b610ebf84848484613cfd565b50505050565b6060610ed082611174565b610f0f576040517f08c379a0000000000000000000000000000000000000000000000000000000008152600401610f06906157d7565b60405180910390fd5b6000600660008481526020019081526020016000208054610f2f90615b91565b80601f0160208091040260200160405190810160405280929190818152602001828054610f5b90615b91565b8015610fa85780601f10610f7d57610100808354040283529160200191610fa8565b820191906000526020600020905b815481529060010190602001808311610f8b57829003601f168201915b505050505090506000610fb9613d59565b9050600081511415610fcf578192505050611012565b600082511115611004578082604051602001610fec929190615414565b60405160208183030381529060405292505050611012565b61100d84613deb565b925050505b919050565b600c6020528060005260406000206000915090505481565b6000600c60003373ffffffffffffffffffffffffffffffffffffffff1673ffffffffffffffffffffffffffffffffffffffff16815260200190815260200160002054905090565b6000600560008473ffffffffffffffffffffffffffffffffffffffff1673ffffffffffffffffffffffffffffffffffffffff16815260200190815260200160002060008373ffffffffffffffffffffffffffffffffffffffff1673ffffffffffffffffffffffffffffffffffffffff16815260200190815260200160002060009054906101000a900460ff16905092915050565b60007f01ffc9a7000000000000000000000000000000000000000000000000000000007bffffffffffffffffffffffffffffffffffffffffffffffffffffffff1916827bffffffffffffffffffffffffffffffffffffffffffffffffffffffff1916149050919050565b60008073ffffffffffffffffffffffffffffffffffffffff166002600084815260200190815260200160002060009054906101000a900473ffffffffffffffffffffffffffffffffffffffff1673ffffffffffffffffffffffffffffffffffffffff1614159050919050565b600033905090565b816004600083815260200190815260200160002060006101000a81548173ffffffffffffffffffffffffffffffffffffffff021916908373ffffffffffffffffffffffffffffffffffffffff160217905550808273ffffffffffffffffffffffffffffffffffffffff1661125b836107c4565b73ffffffffffffffffffffffffffffffffffffffff167f8c5be1e5ebec7d5bd14f71427d1e84f3dd0314c0f7b2291e5b200ac8c7c3b92560405160405180910390a45050565b60006112ac82611174565b6112eb576040517f08c379a00000000000000000000000000000000000000000000000000000000081526004016112e290615717565b60405180910390fd5b60006112f6836107c4565b90508073ffffffffffffffffffffffffffffffffffffffff168473ffffffffffffffffffffffffffffffffffffffff16148061136557508373ffffffffffffffffffffffffffffffffffffffff1661134d84610596565b73ffffffffffffffffffffffffffffffffffffffff16145b8061137657506113758185611076565b5b91505092915050565b8273ffffffffffffffffffffffffffffffffffffffff1661139f826107c4565b73ffffffffffffffffffffffffffffffffffffffff16146113f5576040517f08c379a00000000000000000000000000000000000000000000000000000000081526004016113ec90615817565b60405180910390fd5b600073ffffffffffffffffffffffffffffffffffffffff168273ffffffffffffffffffffffffffffffffffffffff161415611465576040517f08c379a000000000000000000000000000000000000000000000000000000000815260040161145c906156d7565b60405180910390fd5b611470838383613e92565b61147b6000826111e8565b6001600360008573ffffffffffffffffffffffffffffffffffffffff1673ffffffffffffffffffffffffffffffffffffffff16815260200190815260200160002060008282546114cb9190615aa7565b925050819055506001600360008473ffffffffffffffffffffffffffffffffffffffff1673ffffffffffffffffffffffffffffffffffffffff168152602001908152602001600020600082825461152291906159c6565b92505081905550816002600083815260200190815260200160002060006101000a81548173ffffffffffffffffffffffffffffffffffffffff021916908373ffffffffffffffffffffffffffffffffffffffff160217905550808273ffffffffffffffffffffffffffffffffffffffff168473ffffffffffffffffffffffffffffffffffffffff167fddf252ad1be2c89b69c2b068fc378daa952ba7f163c4a11628f55a4df523b3ef60405160405180910390a4505050565b600081600001549050919050565b606060006040518061062001604052806040518060400160405280600481526020017ff09f98840000000000000000000000000000000000000000000000000000000081525081526020016040518060400160405280600481526020017ff09f98830000000000000000000000000000000000000000000000000000000081525081526020016040518060400160405280600481526020017ff09f98800000000000000000000000000000000000000000000000000000000081525081526020016040518060400160405280600481526020017ff09f988a0000000000000000000000000000000000000000000000000000000081525081526020016040518060400160405280600381526020017fe298ba000000000000000000000000000000000000000000000000000000000081525081526020016040518060400160405280600481526020017ff09f98890000000000000000000000000000000000000000000000000000000081525081526020016040518060400160405280600481526020017ff09f988d0000000000000000000000000000000000000000000000000000000081525081526020016040518060400160405280600481526020017ff09f98980000000000000000000000000000000000000000000000000000000081525081526020016040518060400160405280600481526020017ff09f989a0000000000000000000000000000000000000000000000000000000081525081526020016040518060400160405280600481526020017ff09f98970000000000000000000000000000000000000000000000000000000081525081526020016040518060400160405280600481526020017ff09f98990000000000000000000000000000000000000000000000000000000081525081526020016040518060400160405280600481526020017ff09f989c0000000000000000000000000000000000000000000000000000000081525081526020016040518060400160405280600481526020017ff09f989d0000000000000000000000000000000000000000000000000000000081525081526020016040518060400160405280600481526020017ff09f989b0000000000000000000000000000000000000000000000000000000081525081526020016040518060400160405280600481526020017ff09f98b30000000000000000000000000000000000000000000000000000000081525081526020016040518060400160405280600481526020017ff09f98810000000000000000000000000000000000000000000000000000000081525081526020016040518060400160405280600481526020017ff09f98940000000000000000000000000000000000000000000000000000000081525081526020016040518060400160405280600481526020017ff09f988c0000000000000000000000000000000000000000000000000000000081525081526020016040518060400160405280600481526020017ff09f98920000000000000000000000000000000000000000000000000000000081525081526020016040518060400160405280600481526020017ff09f989e0000000000000000000000000000000000000000000000000000000081525081526020016040518060400160405280600481526020017ff09f98a30000000000000000000000000000000000000000000000000000000081525081526020016040518060400160405280600481526020017ff09f98a20000000000000000000000000000000000000000000000000000000081525081526020016040518060400160405280600481526020017ff09f98820000000000000000000000000000000000000000000000000000000081525081526020016040518060400160405280600481526020017ff09f98ad0000000000000000000000000000000000000000000000000000000081525081526020016040518060400160405280600481526020017ff09f98aa0000000000000000000000000000000000000000000000000000000081525081526020016040518060400160405280600481526020017ff09f98a50000000000000000000000000000000000000000000000000000000081525081526020016040518060400160405280600481526020017ff09f98b00000000000000000000000000000000000000000000000000000000081525081526020016040518060400160405280600481526020017ff09f98850000000000000000000000000000000000000000000000000000000081525081526020016040518060400160405280600481526020017ff09f98930000000000000000000000000000000000000000000000000000000081525081526020016040518060400160405280600481526020017ff09f98a90000000000000000000000000000000000000000000000000000000081525081526020016040518060400160405280600481526020017ff09f98ab0000000000000000000000000000000000000000000000000000000081525081526020016040518060400160405280600481526020017ff09f98a80000000000000000000000000000000000000000000000000000000081525081526020016040518060400160405280600481526020017ff09f98b10000000000000000000000000000000000000000000000000000000081525081526020016040518060400160405280600481526020017ff09f98a00000000000000000000000000000000000000000000000000000000081525081526020016040518060400160405280600481526020017ff09f98a10000000000000000000000000000000000000000000000000000000081525081526020016040518060400160405280600481526020017ff09f98a40000000000000000000000000000000000000000000000000000000081525081526020016040518060400160405280600481526020017ff09f98960000000000000000000000000000000000000000000000000000000081525081526020016040518060400160405280600481526020017ff09f98860000000000000000000000000000000000000000000000000000000081525081526020016040518060400160405280600481526020017ff09f988b0000000000000000000000000000000000000000000000000000000081525081526020016040518060400160405280600481526020017ff09f98b70000000000000000000000000000000000000000000000000000000081525081526020016040518060400160405280600481526020017ff09f988e0000000000000000000000000000000000000000000000000000000081525081526020016040518060400160405280600481526020017ff09f98b40000000000000000000000000000000000000000000000000000000081525081526020016040518060400160405280600481526020017ff09f98b50000000000000000000000000000000000000000000000000000000081525081526020016040518060400160405280600481526020017ff09f98b20000000000000000000000000000000000000000000000000000000081525081526020016040518060400160405280600481526020017ff09f989f0000000000000000000000000000000000000000000000000000000081525081526020016040518060400160405280600481526020017ff09f98a60000000000000000000000000000000000000000000000000000000081525081526020016040518060400160405280600481526020017ff09f98a70000000000000000000000000000000000000000000000000000000081525081526020016040518060400160405280600481526020017ff09f98880000000000000000000000000000000000000000000000000000000081525081526020016040518060400160405280600481526020017ff09f91bf00000000000000000000000000000000000000000000000000000000815250815250905060006040518061066001604052806040518060400160405280600481526020017ff09f92a90000000000000000000000000000000000000000000000000000000081525081526020016040518060400160405280600481526020017ff09f94a50000000000000000000000000000000000000000000000000000000081525081526020016040518060400160405280600381526020017fe29ca8000000000000000000000000000000000000000000000000000000000081525081526020016040518060400160405280600481526020017ff09f8c9f0000000000000000000000000000000000000000000000000000000081525081526020016040518060400160405280600481526020017ff09f92ab0000000000000000000000000000000000000000000000000000000081525081526020016040518060400160405280600481526020017ff09f92a50000000000000000000000000000000000000000000000000000000081525081526020016040518060400160405280600481526020017ff09f92a20000000000000000000000000000000000000000000000000000000081525081526020016040518060400160405280600481526020017ff09f92a60000000000000000000000000000000000000000000000000000000081525081526020016040518060400160405280600481526020017ff09f92a70000000000000000000000000000000000000000000000000000000081525081526020016040518060400160405280600481526020017ff09f92a40000000000000000000000000000000000000000000000000000000081525081526020016040518060400160405280600481526020017ff09f92a80000000000000000000000000000000000000000000000000000000081525081526020016040518060400160405280600481526020017ff09f91820000000000000000000000000000000000000000000000000000000081525081526020016040518060400160405280600481526020017ff09f91800000000000000000000000000000000000000000000000000000000081525081526020016040518060400160405280600481526020017ff09f91830000000000000000000000000000000000000000000000000000000081525081526020016040518060400160405280600481526020017ff09f91850000000000000000000000000000000000000000000000000000000081525081526020016040518060400160405280600481526020017ff09f91840000000000000000000000000000000000000000000000000000000081525081526020016040518060400160405280600481526020017ff09f918d0000000000000000000000000000000000000000000000000000000081525081526020016040518060400160405280600481526020017ff09f918e0000000000000000000000000000000000000000000000000000000081525081526020016040518060400160405280600481526020017ff09f918c0000000000000000000000000000000000000000000000000000000081525081526020016040518060400160405280600481526020017ff09f918a0000000000000000000000000000000000000000000000000000000081525081526020016040518060400160405280600381526020017fe29c8a000000000000000000000000000000000000000000000000000000000081525081526020016040518060400160405280600381526020017fe29c8c000000000000000000000000000000000000000000000000000000000081525081526020016040518060400160405280600481526020017ff09f918b0000000000000000000000000000000000000000000000000000000081525081526020016040518060400160405280600381526020017fe29c8b000000000000000000000000000000000000000000000000000000000081525081526020016040518060400160405280600481526020017ff09f91900000000000000000000000000000000000000000000000000000000081525081526020016040518060400160405280600481526020017ff09f91860000000000000000000000000000000000000000000000000000000081525081526020016040518060400160405280600481526020017ff09f91870000000000000000000000000000000000000000000000000000000081525081526020016040518060400160405280600481526020017ff09f91890000000000000000000000000000000000000000000000000000000081525081526020016040518060400160405280600481526020017ff09f91880000000000000000000000000000000000000000000000000000000081525081526020016040518060400160405280600381526020017fe28c9a000000000000000000000000000000000000000000000000000000000081525081526020016040518060400160405280600481526020017ff09f94930000000000000000000000000000000000000000000000000000000081525081526020016040518060400160405280600481526020017ff09f94920000000000000000000000000000000000000000000000000000000081525081526020016040518060400160405280600481526020017ff09f948f0000000000000000000000000000000000000000000000000000000081525081526020016040518060400160405280600481526020017ff09f94900000000000000000000000000000000000000000000000000000000081525081526020016040518060400160405280600481526020017ff09f94910000000000000000000000000000000000000000000000000000000081525081526020016040518060400160405280600481526020017ff09f948e0000000000000000000000000000000000000000000000000000000081525081526020016040518060400160405280600481526020017ff09f92a10000000000000000000000000000000000000000000000000000000081525081526020016040518060400160405280600481526020017ff09f94a60000000000000000000000000000000000000000000000000000000081525081526020016040518060400160405280600481526020017ff09f94860000000000000000000000000000000000000000000000000000000081525081526020016040518060400160405280600481526020017ff09f94850000000000000000000000000000000000000000000000000000000081525081526020016040518060400160405280600481526020017ff09f948c0000000000000000000000000000000000000000000000000000000081525081526020016040518060400160405280600481526020017ff09f948b0000000000000000000000000000000000000000000000000000000081525081526020016040518060400160405280600481526020017ff09f948d0000000000000000000000000000000000000000000000000000000081525081526020016040518060400160405280600481526020017ff09f9b810000000000000000000000000000000000000000000000000000000081525081526020016040518060400160405280600481526020017ff09f9b800000000000000000000000000000000000000000000000000000000081525081526020016040518060400160405280600481526020017ff09f9abf0000000000000000000000000000000000000000000000000000000081525081526020016040518060400160405280600481526020017ff09f9abd0000000000000000000000000000000000000000000000000000000081525081526020016040518060400160405280600481526020017ff09f94a70000000000000000000000000000000000000000000000000000000081525081526020016040518060400160405280600481526020017ff09f94a90000000000000000000000000000000000000000000000000000000081525081526020016040518060400160405280600481526020017ff09f94a80000000000000000000000000000000000000000000000000000000081525081526020016040518060400160405280600481526020017ff09f9aaa00000000000000000000000000000000000000000000000000000000815250815250905060006040518061064001604052806040518060400160405280600481526020017ff09f90b60000000000000000000000000000000000000000000000000000000081525081526020016040518060400160405280600481526020017ff09f90ba0000000000000000000000000000000000000000000000000000000081525081526020016040518060400160405280600481526020017ff09f90b10000000000000000000000000000000000000000000000000000000081525081526020016040518060400160405280600481526020017ff09f90ad0000000000000000000000000000000000000000000000000000000081525081526020016040518060400160405280600481526020017ff09f90b90000000000000000000000000000000000000000000000000000000081525081526020016040518060400160405280600481526020017ff09f90b00000000000000000000000000000000000000000000000000000000081525081526020016040518060400160405280600481526020017ff09f90b80000000000000000000000000000000000000000000000000000000081525081526020016040518060400160405280600481526020017ff09f90af0000000000000000000000000000000000000000000000000000000081525081526020016040518060400160405280600481526020017ff09f90a80000000000000000000000000000000000000000000000000000000081525081526020016040518060400160405280600481526020017ff09f90bb0000000000000000000000000000000000000000000000000000000081525081526020016040518060400160405280600481526020017ff09f90b70000000000000000000000000000000000000000000000000000000081525081526020016040518060400160405280600481526020017ff09f90bd0000000000000000000000000000000000000000000000000000000081525081526020016040518060400160405280600481526020017ff09f90ae0000000000000000000000000000000000000000000000000000000081525081526020016040518060400160405280600481526020017ff09f90970000000000000000000000000000000000000000000000000000000081525081526020016040518060400160405280600481526020017ff09f90b50000000000000000000000000000000000000000000000000000000081525081526020016040518060400160405280600481526020017ff09f90920000000000000000000000000000000000000000000000000000000081525081526020016040518060400160405280600481526020017ff09f90b40000000000000000000000000000000000000000000000000000000081525081526020016040518060400160405280600481526020017ff09f90910000000000000000000000000000000000000000000000000000000081525081526020016040518060400160405280600481526020017ff09f90980000000000000000000000000000000000000000000000000000000081525081526020016040518060400160405280600481526020017ff09f90bc0000000000000000000000000000000000000000000000000000000081525081526020016040518060400160405280600481526020017ff09f90a70000000000000000000000000000000000000000000000000000000081525081526020016040518060400160405280600481526020017ff09f90a60000000000000000000000000000000000000000000000000000000081525081526020016040518060400160405280600481526020017ff09f90a40000000000000000000000000000000000000000000000000000000081525081526020016040518060400160405280600481526020017ff09f90a50000000000000000000000000000000000000000000000000000000081525081526020016040518060400160405280600481526020017ff09f90a30000000000000000000000000000000000000000000000000000000081525081526020016040518060400160405280600481526020017ff09f90940000000000000000000000000000000000000000000000000000000081525081526020016040518060400160405280600481526020017ff09f908d0000000000000000000000000000000000000000000000000000000081525081526020016040518060400160405280600481526020017ff09f90a20000000000000000000000000000000000000000000000000000000081525081526020016040518060400160405280600481526020017ff09f909b0000000000000000000000000000000000000000000000000000000081525081526020016040518060400160405280600481526020017ff09f909d0000000000000000000000000000000000000000000000000000000081525081526020016040518060400160405280600481526020017ff09f909c0000000000000000000000000000000000000000000000000000000081525081526020016040518060400160405280600481526020017ff09f909e0000000000000000000000000000000000000000000000000000000081525081526020016040518060400160405280600481526020017ff09f908c0000000000000000000000000000000000000000000000000000000081525081526020016040518060400160405280600481526020017ff09f90990000000000000000000000000000000000000000000000000000000081525081526020016040518060400160405280600481526020017ff09f909a0000000000000000000000000000000000000000000000000000000081525081526020016040518060400160405280600481526020017ff09f90a00000000000000000000000000000000000000000000000000000000081525081526020016040518060400160405280600481526020017ff09f909f0000000000000000000000000000000000000000000000000000000081525081526020016040518060400160405280600481526020017ff09f90ac0000000000000000000000000000000000000000000000000000000081525081526020016040518060400160405280600481526020017ff09f90b30000000000000000000000000000000000000000000000000000000081525081526020016040518060400160405280600481526020017ff09f908b0000000000000000000000000000000000000000000000000000000081525081526020016040518060400160405280600481526020017ff09f90840000000000000000000000000000000000000000000000000000000081525081526020016040518060400160405280600481526020017ff09f908f0000000000000000000000000000000000000000000000000000000081525081526020016040518060400160405280600481526020017ff09f90800000000000000000000000000000000000000000000000000000000081525081526020016040518060400160405280600481526020017ff09f90830000000000000000000000000000000000000000000000000000000081525081526020016040518060400160405280600481526020017ff09f90850000000000000000000000000000000000000000000000000000000081525081526020016040518060400160405280600481526020017ff09f90870000000000000000000000000000000000000000000000000000000081525081526020016040518060400160405280600481526020017ff09f90890000000000000000000000000000000000000000000000000000000081525081526020016040518060400160405280600481526020017ff09f908e0000000000000000000000000000000000000000000000000000000081525081526020016040518060400160405280600481526020017ff09f90900000000000000000000000000000000000000000000000000000000081525081526020016040518060400160405280600481526020017ff09f909300000000000000000000000000000000000000000000000000000000815250815250905060006138b38685613e97565b905060006138c18785613f20565b905060006138cf8885613fa9565b905060006138e960018a6138e391906159c6565b88613e97565b9050600061390360018b6138fd91906159c6565b88613f20565b9050600061391d60018c61391791906159c6565b88613fa9565b9050600086868686868660405160200161393c96959493929190615438565b6040516020818303038152906040529050809a5050505050505050505050919050565b606060008251905060008114156139885760405180602001604052806000815250915050613b18565b6000600360028361399991906159c6565b6139a39190615a1c565b60046139af9190615a4d565b905060006020826139c091906159c6565b67ffffffffffffffff8111156139ff577f4e487b7100000000000000000000000000000000000000000000000000000000600052604160045260246000fd5b6040519080825280601f01601f191660200182016040528015613a315781602001600182028036833780820191505090505b5090506000604051806060016040528060408152602001615d8c604091399050600181016020830160005b86811015613ad55760038101905062ffffff818a015116603f8160121c168401518060081b905060ff603f83600c1c1686015116810190508060081b905060ff603f8360061c1686015116810190508060081b905060ff603f831686015116810190508060e01b90508084526004840193505050613a5c565b506003860660018114613aef5760028114613aff57613b0a565b613d3d60f01b6002830352613b0a565b603d60f81b60018303525b508484525050819450505050505b919050565b613bb381604051602401613b319190615637565b6040516020818303038152906040527f41304fac000000000000000000000000000000000000000000000000000000007bffffffffffffffffffffffffffffffffffffffffffffffffffffffff19166020820180517bffffffffffffffffffffffffffffffffffffffffffffffffffffffff8381831617835250505050614032565b50565b613bd082826040518060200160405280600081525061405b565b5050565b613bdd82611174565b613c1c576040517f08c379a0000000000000000000000000000000000000000000000000000000008152600401613c1390615797565b60405180910390fd5b80600660008481526020019081526020016000209080519060200190613c4392919061460e565b505050565b6001816000016000828254019250508190555050565b613cf8838383604051602401613c7693929190615659565b6040516020818303038152906040527fe3849f79000000000000000000000000000000000000000000000000000000007bffffffffffffffffffffffffffffffffffffffffffffffffffffffff19166020820180517bffffffffffffffffffffffffffffffffffffffffffffffffffffffff8381831617835250505050614032565b505050565b613d0884848461137f565b613d14848484846140b6565b613d53576040517f08c379a0000000000000000000000000000000000000000000000000000000008152600401613d4a90615697565b60405180910390fd5b50505050565b606060088054613d6890615b91565b80601f0160208091040260200160405190810160405280929190818152602001828054613d9490615b91565b8015613de15780601f10613db657610100808354040283529160200191613de1565b820191906000526020600020905b815481529060010190602001808311613dc457829003601f168201915b5050505050905090565b6060613df682611174565b613e35576040517f08c379a0000000000000000000000000000000000000000000000000000000008152600401613e2c90615837565b60405180910390fd5b6000613e3f613d59565b90506000815111613e5f5760405180602001604052806000815250613e8a565b80613e698461424d565b604051602001613e7a929190615414565b6040516020818303038152906040525b915050919050565b505050565b606060006031613ecd613ea98661424d565b604051602001613eb991906154bf565b6040516020818303038152906040526143fa565b613ed79190615c0c565b9050828160318110613f12577f4e487b7100000000000000000000000000000000000000000000000000000000600052603260045260246000fd5b602002015191505092915050565b606060006033613f56613f328661424d565b604051602001613f429190615548565b6040516020818303038152906040526143fa565b613f609190615c0c565b9050828160338110613f9b577f4e487b7100000000000000000000000000000000000000000000000000000000600052603260045260246000fd5b602002015191505092915050565b606060006032613fdf613fbb8661424d565b604051602001613fcb91906154e1565b6040516020818303038152906040526143fa565b613fe99190615c0c565b9050828160328110614024577f4e487b7100000000000000000000000000000000000000000000000000000000600052603260045260246000fd5b602002015191505092915050565b60008151905060006a636f6e736f6c652e6c6f679050602083016000808483855afa5050505050565b614065838361442d565b61407260008484846140b6565b6140b1576040517f08c379a00000000000000000000000000000000000000000000000000000000081526004016140a890615697565b60405180910390fd5b505050565b60006140d78473ffffffffffffffffffffffffffffffffffffffff166145fb565b15614240578373ffffffffffffffffffffffffffffffffffffffff1663150b7a026141006111e0565b8786866040518563ffffffff1660e01b815260040161412294939291906155a7565b602060405180830381600087803b15801561413c57600080fd5b505af192505050801561416d57506040513d601f19601f8201168201806040525081019061416a91906149ba565b60015b6141f0573d806000811461419d576040519150601f19603f3d011682016040523d82523d6000602084013e6141a2565b606091505b506000815114156141e8576040517f08c379a00000000000000000000000000000000000000000000000000000000081526004016141df90615697565b60405180910390fd5b805181602001fd5b63150b7a0260e01b7bffffffffffffffffffffffffffffffffffffffffffffffffffffffff1916817bffffffffffffffffffffffffffffffffffffffffffffffffffffffff191614915050614245565b600190505b949350505050565b60606000821415614295576040518060400160405280600181526020017f300000000000000000000000000000000000000000000000000000000000000081525090506143f5565b600082905060005b600082146142c75780806142b090615bc3565b915050600a826142c09190615a1c565b915061429d565b60008167ffffffffffffffff811115614309577f4e487b7100000000000000000000000000000000000000000000000000000000600052604160045260246000fd5b6040519080825280601f01601f19166020018201604052801561433b5781602001600182028036833780820191505090505b5090505b600085146143ee576001826143549190615aa7565b9150600a856143639190615c0c565b603061436f91906159c6565b60f81b8183815181106143ab577f4e487b7100000000000000000000000000000000000000000000000000000000600052603260045260246000fd5b60200101907effffffffffffffffffffffffffffffffffffffffffffffffffffffffffffff1916908160001a905350600a856143e79190615a1c565b945061433f565b8093505050505b919050565b60008160405160200161440d91906153fd565b6040516020818303038152906040528051906020012060001c9050919050565b600073ffffffffffffffffffffffffffffffffffffffff168273ffffffffffffffffffffffffffffffffffffffff16141561449d576040517f08c379a0000000000000000000000000000000000000000000000000000000008152600401614494906157b7565b60405180910390fd5b6144a681611174565b156144e6576040517f08c379a00000000000000000000000000000000000000000000000000000000081526004016144dd906156b7565b60405180910390fd5b6144f260008383613e92565b6001600360008473ffffffffffffffffffffffffffffffffffffffff1673ffffffffffffffffffffffffffffffffffffffff168152602001908152602001600020600082825461454291906159c6565b92505081905550816002600083815260200190815260200160002060006101000a81548173ffffffffffffffffffffffffffffffffffffffff021916908373ffffffffffffffffffffffffffffffffffffffff160217905550808273ffffffffffffffffffffffffffffffffffffffff16600073ffffffffffffffffffffffffffffffffffffffff167fddf252ad1be2c89b69c2b068fc378daa952ba7f163c4a11628f55a4df523b3ef60405160405180910390a45050565b600080823b905060008111915050919050565b82805461461a90615b91565b90600052602060002090601f01602090048101928261463c5760008555614683565b82601f1061465557805160ff1916838001178555614683565b82800160010185558215614683579182015b82811115614682578251825591602001919060010190614667565b5b5090506146909190614694565b5090565b5b808211156146ad576000816000905550600101614695565b5090565b60006146c46146bf84615923565b6158f2565b9050828152602081018484840111156146dc57600080fd5b6146e7848285615b4f565b509392505050565b60006147026146fd84615953565b6158f2565b90508281526020810184848401111561471a57600080fd5b614725848285615b4f565b509392505050565b60008135905061473c81615d0a565b92915050565b60008135905061475181615d21565b92915050565b60008135905061476681615d38565b92915050565b60008151905061477b81615d38565b92915050565b600082601f83011261479257600080fd5b81356147a28482602086016146b1565b91505092915050565b600082601f8301126147bc57600080fd5b81356147cc8482602086016146ef565b91505092915050565b6000813590506147e481615d4f565b92915050565b6000602082840312156147fc57600080fd5b600061480a8482850161472d565b91505092915050565b6000806040838503121561482657600080fd5b60006148348582860161472d565b92505060206148458582860161472d565b9150509250929050565b60008060006060848603121561486457600080fd5b60006148728682870161472d565b93505060206148838682870161472d565b9250506040614894868287016147d5565b9150509250925092565b600080600080608085870312156148b457600080fd5b60006148c28782880161472d565b94505060206148d38782880161472d565b93505060406148e4878288016147d5565b925050606085013567ffffffffffffffff81111561490157600080fd5b61490d87828801614781565b91505092959194509250565b6000806040838503121561492c57600080fd5b600061493a8582860161472d565b925050602061494b85828601614742565b9150509250929050565b6000806040838503121561496857600080fd5b60006149768582860161472d565b9250506020614987858286016147d5565b9150509250929050565b6000602082840312156149a357600080fd5b60006149b184828501614757565b91505092915050565b6000602082840312156149cc57600080fd5b60006149da8482850161476c565b91505092915050565b6000602082840312156149f557600080fd5b600082013567ffffffffffffffff811115614a0f57600080fd5b614a1b848285016147ab565b91505092915050565b600060208284031215614a3657600080fd5b6000614a44848285016147d5565b91505092915050565b614a5681615adb565b82525050565b614a6581615aed565b82525050565b6000614a7682615983565b614a808185615999565b9350614a90818560208601615b5e565b614a9981615cf9565b840191505092915050565b6000614aaf8261598e565b614ab981856159aa565b9350614ac9818560208601615b5e565b614ad281615cf9565b840191505092915050565b6000614ae88261598e565b614af281856159bb565b9350614b02818560208601615b5e565b80840191505092915050565b6000614b1b600b836159bb565b91507f46495253545f454d4f4a490000000000000000000000000000000000000000006000830152600b82019050919050565b6000614b5b6032836159aa565b91507f4552433732313a207472616e7366657220746f206e6f6e20455243373231526560008301527f63656976657220696d706c656d656e74657200000000000000000000000000006020830152604082019050919050565b6000614bc1601c836159aa565b91507f4552433732313a20746f6b656e20616c7265616479206d696e746564000000006000830152602082019050919050565b6000614c016024836159aa565b91507f4552433732313a207472616e7366657220746f20746865207a65726f2061646460008301527f72657373000000000000000000000000000000000000000000000000000000006020830152604082019050919050565b6000614c676019836159aa565b91507f4552433732313a20617070726f766520746f2063616c6c6572000000000000006000830152602082019050919050565b6000614ca7602c836159aa565b91507f4552433732313a206f70657261746f7220717565727920666f72206e6f6e657860008301527f697374656e7420746f6b656e00000000000000000000000000000000000000006020830152604082019050919050565b6000614d0d600b836159bb565b91507f54484952445f454d4f4a490000000000000000000000000000000000000000006000830152600b82019050919050565b6000614d4d600d836159bb565b91507f3c2f746578743e3c2f7376673e000000000000000000000000000000000000006000830152600d82019050919050565b6000614d8d6038836159aa565b91507f4552433732313a20617070726f76652063616c6c6572206973206e6f74206f7760008301527f6e6572206e6f7220617070726f76656420666f7220616c6c00000000000000006020830152604082019050919050565b6000614df3602a836159aa565b91507f4552433732313a2062616c616e636520717565727920666f7220746865207a6560008301527f726f2061646472657373000000000000000000000000000000000000000000006020830152604082019050919050565b6000614e596029836159aa565b91507f4552433732313a206f776e657220717565727920666f72206e6f6e657869737460008301527f656e7420746f6b656e00000000000000000000000000000000000000000000006020830152604082019050919050565b6000614ebf602e836159aa565b91507f45524337323155524953746f726167653a2055524920736574206f66206e6f6e60008301527f6578697374656e7420746f6b656e0000000000000000000000000000000000006020830152604082019050919050565b6000614f256002836159bb565b91507f227d0000000000000000000000000000000000000000000000000000000000006000830152600282019050919050565b6000614f656020836159aa565b91507f4552433732313a206d696e7420746f20746865207a65726f20616464726573736000830152602082019050919050565b6000614fa56031836159aa565b91507f45524337323155524953746f726167653a2055524920717565727920666f722060008301527f6e6f6e6578697374656e7420746f6b656e0000000000000000000000000000006020830152604082019050919050565b600061500b602c836159aa565b91507f4552433732313a20617070726f76656420717565727920666f72206e6f6e657860008301527f697374656e7420746f6b656e00000000000000000000000000000000000000006020830152604082019050919050565b60006150716029836159aa565b91507f4552433732313a207472616e73666572206f6620746f6b656e2074686174206960008301527f73206e6f74206f776e00000000000000000000000000000000000000000000006020830152604082019050919050565b60006150d7602f836159aa565b91507f4552433732314d657461646174613a2055524920717565727920666f72206e6f60008301527f6e6578697374656e7420746f6b656e00000000000000000000000000000000006020830152604082019050919050565b600061513d600a836159bb565b91507f7b226e616d65223a2022000000000000000000000000000000000000000000006000830152600a82019050919050565b600061517d6021836159aa565b91507f4552433732313a20617070726f76616c20746f2063757272656e74206f776e6560008301527f72000000000000000000000000000000000000000000000000000000000000006020830152604082019050919050565b60006151e36031836159aa565b91507f4552433732313a207472616e736665722063616c6c6572206973206e6f74206f60008301527f776e6572206e6f7220617070726f7665640000000000000000000000000000006020830152604082019050919050565b6000615249600c836159bb565b91507f5345434f4e445f454d4f4a4900000000000000000000000000000000000000006000830152600c82019050919050565b6000615289601e836159bb565b91507f646174613a6170706c69636174696f6e2f6a736f6e3b6261736536342c2000006000830152601e82019050919050565b60006152c9601a836159aa565b91507f416c6c204e4654277320686173206265656e206d696e746564210000000000006000830152602082019050919050565b60006153096014836159aa565b91507f53656e646572206973206e6f74206f776e6572210000000000000000000000006000830152602082019050919050565b6000615349606c836159bb565b91507f222c20226465736372697074696f6e223a20224120686967686c79206163636c60008301527f61696d656420636f6c6c656374696f6e206f66203620656d6f6a69732073717560208301527f617265732e222c2022696d616765223a2022646174613a696d6167652f73766760408301527f2b786d6c3b6261736536342c00000000000000000000000000000000000000006060830152606c82019050919050565b6153f781615b45565b82525050565b60006154098284614add565b915081905092915050565b60006154208285614add565b915061542c8284614add565b91508190509392505050565b60006154448289614add565b91506154508288614add565b915061545c8287614add565b91506154688286614add565b91506154748285614add565b91506154808284614add565b9150819050979650505050505050565b600061549c8285614add565b91506154a88284614add565b91506154b382614d40565b91508190509392505050565b60006154ca82614b0e565b91506154d68284614add565b915081905092915050565b60006154ec82614d00565b91506154f88284614add565b915081905092915050565b600061550e82615130565b915061551a8285614add565b91506155258261533c565b91506155318284614add565b915061553c82614f18565b91508190509392505050565b60006155538261523c565b915061555f8284614add565b915081905092915050565b60006155758261527c565b91506155818284614add565b915081905092915050565b60006020820190506155a16000830184614a4d565b92915050565b60006080820190506155bc6000830187614a4d565b6155c96020830186614a4d565b6155d660408301856153ee565b81810360608301526155e88184614a6b565b905095945050505050565b60006040820190506156086000830185614a4d565b61561560208301846153ee565b9392505050565b60006020820190506156316000830184614a5c565b92915050565b600060208201905081810360008301526156518184614aa4565b905092915050565b600060608201905081810360008301526156738186614aa4565b905061568260208301856153ee565b61568f6040830184614a4d565b949350505050565b600060208201905081810360008301526156b081614b4e565b9050919050565b600060208201905081810360008301526156d081614bb4565b9050919050565b600060208201905081810360008301526156f081614bf4565b9050919050565b6000602082019050818103600083015261571081614c5a565b9050919050565b6000602082019050818103600083015261573081614c9a565b9050919050565b6000602082019050818103600083015261575081614d80565b9050919050565b6000602082019050818103600083015261577081614de6565b9050919050565b6000602082019050818103600083015261579081614e4c565b9050919050565b600060208201905081810360008301526157b081614eb2565b9050919050565b600060208201905081810360008301526157d081614f58565b9050919050565b600060208201905081810360008301526157f081614f98565b9050919050565b6000602082019050818103600083015261581081614ffe565b9050919050565b6000602082019050818103600083015261583081615064565b9050919050565b60006020820190508181036000830152615850816150ca565b9050919050565b6000602082019050818103600083015261587081615170565b9050919050565b60006020820190508181036000830152615890816151d6565b9050919050565b600060208201905081810360008301526158b0816152bc565b9050919050565b600060208201905081810360008301526158d0816152fc565b9050919050565b60006020820190506158ec60008301846153ee565b92915050565b6000604051905081810181811067ffffffffffffffff8211171561591957615918615cca565b5b8060405250919050565b600067ffffffffffffffff82111561593e5761593d615cca565b5b601f19601f8301169050602081019050919050565b600067ffffffffffffffff82111561596e5761596d615cca565b5b601f19601f8301169050602081019050919050565b600081519050919050565b600081519050919050565b600082825260208201905092915050565b600082825260208201905092915050565b600081905092915050565b60006159d182615b45565b91506159dc83615b45565b9250827fffffffffffffffffffffffffffffffffffffffffffffffffffffffffffffffff03821115615a1157615a10615c3d565b5b828201905092915050565b6000615a2782615b45565b9150615a3283615b45565b925082615a4257615a41615c6c565b5b828204905092915050565b6000615a5882615b45565b9150615a6383615b45565b9250817fffffffffffffffffffffffffffffffffffffffffffffffffffffffffffffffff0483118215151615615a9c57615a9b615c3d565b5b828202905092915050565b6000615ab282615b45565b9150615abd83615b45565b925082821015615ad057615acf615c3d565b5b828203905092915050565b6000615ae682615b25565b9050919050565b60008115159050919050565b60007fffffffff0000000000000000000000000000000000000000000000000000000082169050919050565b600073ffffffffffffffffffffffffffffffffffffffff82169050919050565b6000819050919050565b82818337600083830152505050565b60005b83811015615b7c578082015181840152602081019050615b61565b83811115615b8b576000848401525b50505050565b60006002820490506001821680615ba957607f821691505b60208210811415615bbd57615bbc615c9b565b5b50919050565b6000615bce82615b45565b91507fffffffffffffffffffffffffffffffffffffffffffffffffffffffffffffffff821415615c0157615c00615c3d565b5b600182019050919050565b6000615c1782615b45565b9150615c2283615b45565b925082615c3257615c31615c6c565b5b828206905092915050565b7f4e487b7100000000000000000000000000000000000000000000000000000000600052601160045260246000fd5b7f4e487b7100000000000000000000000000000000000000000000000000000000600052601260045260246000fd5b7f4e487b7100000000000000000000000000000000000000000000000000000000600052602260045260246000fd5b7f4e487b7100000000000000000000000000000000000000000000000000000000600052604160045260246000fd5b6000601f19601f8301169050919050565b615d1381615adb565b8114615d1e57600080fd5b50565b615d2a81615aed565b8114615d3557600080fd5b50565b615d4181615af9565b8114615d4c57600080fd5b50565b615d5881615b45565b8114615d6357600080fd5b5056fe416e204e465420772f20494420257320686173206265656e206d696e74656420746f2025734142434445464748494a4b4c4d4e4f505152535455565758595a6162636465666768696a6b6c6d6e6f707172737475767778797a303132333435363738392b2f3c73766720786d6c6e733d27687474703a2f2f7777772e77332e6f72672f323030302f73766727207072657365727665417370656374526174696f3d27784d696e594d696e206d656574272076696577426f783d273020302033353020333530273e3c7374796c653e2e62617365207b2066696c6c3a2077686974653b20666f6e742d66616d696c793a2073657269663b20666f6e742d73697a653a20333070783b207d3c2f7374796c653e3c726563742077696474683d273130302527206865696768743d2731303025272066696c6c3d272337374336353527202f3e3c7465787420783d273530252720793d273530252720636c6173733d27626173652720646f6d696e616e742d626173656c696e653d276d6964646c652720746578742d616e63686f723d276d6964646c65273ea26469706673582212205020aa211d04ec62aaa9d29696ba328b3bf713cdba7ec68290c0bf0518eba3a064736f6c63430008000033",
  "linkReferences": {},
  "deployedLinkReferences": {}
}